:020000040000FA
:1000000083EF1FF0C96E1200C1EF1BF029EC0FF057
:10001000EDEC0FF0FDD71200B9EF1DF0D9CFE5FFE1
:10002000E1CFD9FF00C0E5FF01C0E5FF02C0E5FF59
:1000300003C0E5FF04C0E5FF05C0E5FF06C0E5FF1E
:1000400007C0E5FF08C0E5FF09C0E5FF0AC0E5FFFE
:100050000BC0E5FF0CC0E5FF0DC0E5FF0EC0E5FFDE
:100060000FC0E5FF10C0E5FF11C0E5FF12C0E5FFBE
:1000700013C0E5FF14C0E5FF15C0E5FF16C0E5FF9E
:1000800017C0E5FF18C0E5FF19C0E5FF1AC0E5FF7E
:100090001BC0E5FF1CC0E5FF1DC0E5FF1EC0E5FF5E
:1000A000020EDBCF00F0030EDBCF01F0040EDBCF3E
:1000B00002F0050EDBCF03F0060EDBCF04F0070ED7
:1000C000DBCF05F0080EDBCF06F0090EDBCF07F023
:1000D0000A0EDBCF08F0096A0A6A02C00DF00D5063
:1000E000800A0DE102500301606F01505F6F005004
:1000F0005E6F030E016E5E0E006E800E026E03C018
:10010000E9FF04C0F3FF0550CDEC1FF00B6E0B5060
:10011000D8B4C4EF03F00B50250A02E0ABEF03F0B4
:100120000C6A0D6A0E6A0F6A106A0A0E116E126A64
:10013000136A146A200E156E1668176A2B0E186E55
:10014000032A02E3044A052A03C0E9FF04C0F3FFBF
:100150000550CDEC1FF0196E250A13E11950E56E1C
:100160000250E56E0150E56E0050E56E19EC14F09A
:10017000040EE126094A0A2A032A02E3044A052A50
:10018000BED71950300A06E1300E156E032A02E37D
:10019000044A052A03C0E9FF04C0F3FF0550CDEC73
:1001A0001FF02D0A06E1010E146E032A02E3044A31
:1001B000052A03C0E9FF04C0F3FF0550CDEC1FF092
:1001C000200A08E1010E176E200E186E032A02E3C2
:1001D000044A052A03C0E9FF04C0F3FF0550CDEC33
:1001E0001FF02B0A06E1010E176E032A02E3044AF0
:1001F000052A03C0E9FF04C0F3FF0550CDEC1FF052
:10020000196E310E195C2BE33A0E195C28E203C01B
:1002100019F004C01AF005C01BF019C0E9FF1AC09C
:10022000F3FF1B50CDEC1FF01C6E300E1C5C11E375
:100230003A0E1C5C0EE213500A0DF3CF1DF01C5059
:100240001D26D00E1D24136E192A02E31A4A1B2AFA
:10025000E4D719C003F01AC004F01BC005F003C0B6
:10026000E9FF04C0F3FF0550CDEC1FF02E0A2DE18D
:10027000032A02E3044A052A166A03C019F004C0DF
:100280001AF005C01BF019C0E9FF1AC0F3FF1B509C
:10029000CDEC1FF01C6E300E1C5C11E33A0E1C5CA2
:1002A0000EE216500A0DF3CF1DF01C501D26D00E85
:1002B0001D24166E192A02E31A4A1B2AE4D719C014
:1002C00003F01AC004F01BC005F003C0E9FF04C02E
:1002D000F3FF0550CDEC1FF0196E6C0A07E1010E1B
:1002E0000C6E032A02E3044A052A09D01950680A51
:1002F00006E1010E0E6E032A02E3044A052A03C03A
:10030000E9FF04C0F3FF0550CDEC1FF0750A06E1CC
:10031000010E106E032A02E3044A052A03C0E9FF16
:1003200004C0F3FF0550CDEC1FF0196E730A05E110
:10033000010E0D6E200E156E3FD01950780A03E1A4
:10034000100E116E39D01950580A05E1100E116EB9
:10035000010E126E31D01950630A02E1116A2CD0DD
:1003600019506F0A03E1080E116E26D01950660A63
:1003700003E1010E0F6E20D01950640A1DE01950E0
:10038000690A1AE0105005E0FF0E03260422052238
:1003900013D01950E56E0250E56E0150E56E005025
:1003A000E56E19EC14F0040EE126094A0A2A032A24
:1003B00002E3044A052AA3D60D5021E00650030F9C
:1003C0000D6E000E0720196E000E08201A6E0DC06B
:1003D00006F019C007F01AC008F0FD0E0D26FF0E3A
:1003E00019221A220DC0E9FF19C0F3FF1A5098EC28
:1003F0001EF00D6EF3CF19F0F4CF1AF0FDD00F50B0
:100400000DE0000E1A6E080E196E100E0D6E040E21
:100410000626000E072208221668EED016680C5039
:1004200023E00650040F0C6E000E07200F6E000E26
:1004300008201B6E0CC006F00FC007F01BC008F0B0
:10044000FC0E0C26FF0E0F221B220CC0E9FF0FC072
:10045000F3FF1B5002EC1EF00C6EF3CF0FF0F4CF45
:100460001BF0E9CF1CF067D00E502FE00650020FB2
:100470000E6E000E07201D6E000E08201E6E0EC0B0
:1004800006F01DC007F01EC008F0FE0E0E26FF0E7F
:100490001D221E220EC0E9FF1DC0F3FF1E5057ECA7
:1004A0001FF00E6E0EC00CF00F6A1B6A1C6A115012
:1004B0000A0A03E11050D8B43ED00C500E6E0EC0A4
:1004C0000CF00F6A1B6A1C6A36D00650020F0E6EC3
:1004D000000E07201D6E000E08201E6E0EC006F0D6
:1004E0001DC007F01EC008F0FE0E0E26FF0E1D22D6
:1004F0001E220EC0E9FF1DC0F3FF1E5057EC1FF077
:100500000E6EF3CF1DF00EC00CF01DC00FF0E86AA8
:100510001DBEFF0E1B6E1C6E11500A0A02E1105028
:100520000AE00C500E6E0F501D6E0EC00CF01DC078
:100530000FF01B6A1C6A040E196EF40E0D6E800E0D
:100540001A6E1150D8B440D0105013E01150E56E1F
:10055000040EE56EF40EE56E1C50E56E1B50E56E64
:100560000F50E56E0C50E56E4DEC0EF0070EE126D7
:1005700012D01150E56E040EE56EF40EE56E1C50BF
:10058000E56E1B50E56E0F50E56E0C50E56ECEEC3F
:1005900017F0070EE12617502FE00DC0E9FF19C034
:1005A000F3FF1A50CDEC1FF02D0A26E0FF0E0D26AA
:1005B00019221A2218C0E5FF0DC0E9FF19C0F3FF88
:1005C0001A5045EC20F018D00CC0E5FF0DC0E9FF33
:1005D00019C0F3FF1A5045EC20F00D50010F0C6EBE
:1005E000000E19200E6E000E1A20E56A0CC0E9FFFD
:1005F0000EC0F3FF45EC20F00DC00CF019C00EF05A
:100600001AC00FF013C010F0105010E00CC0E9FF3A
:100610000EC0F3FF0F50CDEC1FF0176E175006E021
:100620000C2A02E30E4A0F2A1006EED710C013F070
:1006300014501EE109C00CF00AC00EF010C00FF0FB
:100640000F5010E01550E56E0250E56E0150E56E5A
:100650000050E56E19EC14F0040EE1260C4A0E2A47
:100660000F06EED70CC009F00EC00AF00FC013F051
:1006700016C00CF00DC00DF019C00EF01AC00FF02E
:1006800009C010F00AC015F00DC0E9FF0EC0F3FF5D
:100690000F50CDEC1FF0166E1650D8B43ED00CC0E3
:1006A00016F0176A161E171E1650171005E00CC01C
:1006B00016F00C06165031E00DC0E9FF0EC0F3FF36
:1006C0000F50CDEC1FF0116E125010E01150E56E7E
:1006D00014EC1FF0166EE652165004E0DF0E1114F3
:1006E000166E02D011C016F016C011F01150E56E52
:1006F0000250E56E0150E56E0050E56E19EC14F005
:10070000040EE1260D2A02E30E4A0F2A104A152A8A
:100710001350D8B4B9D71306B7D710C009F015C015
:100720000AF014502BE010C00CF015C00DF013C0EF
:100730000EF00E501FE0200EE56E0250E56E0150E7
:10074000E56E0050E56E19EC14F0040EE1260C4A3B
:100750000D2A0E06EED70B50E56E0250E56E0150E5
:10076000E56E0050E56E19EC14F0040EE126094A1E
:100770000A2A04D00CC009F00DC00AF0032A02E3D3
:10078000044A052A7FEF00F00AC0F3FF0950E4CFC6
:100790001EF0E4CF1DF0E4CF1CF0E4CF1BF0E4CF5B
:1007A0001AF0E4CF19F0E4CF18F0E4CF17F0E4CF5B
:1007B00016F0E4CF15F0E4CF14F0E4CF13F0E4CF5B
:1007C00012F0E4CF11F0E4CF10F0E4CF0FF0E4CF5B
:1007D0000EF0E4CF0DF0E4CF0CF0E4CF0BF0E4CF5B
:1007E0000AF0E4CF09F0E4CF08F0E4CF07F0E4CF5B
:1007F00006F0E4CF05F0E4CF04F0E4CF03F0E4CF5B
:1008000002F0E4CF01F0E4CF00F0E4CFD9FF120012
:100810003C4E4F20464C4F41543E000000C0E5FF87
:1008200001C0E5FF02C0E5FF03C0E5FF04C0E5FF2E
:1008300005C0E5FF06C0E5FF07C0E5FF08C0E5FF0E
:1008400009C0E5FF0AC0E5FFC2A204D00401265199
:1008500047EF06F004012751D8B42FD104012651E7
:10086000020DF450016EF3CF00F0E00E0026000EF2
:10087000012200C0E9FF01C0EAFFEECF00F0EFCF98
:1008800001F0230E2625026E036A0F0E032202C01A
:10089000E9FF03C0EAFFEFCF02F00250FF0A01E1D7
:1008A00066D002380F0B036E920E0324046E056AA5
:1008B0000F0E0522066A920E03260F0E062203C0B3
:1008C000E9FF06C0EAFFEFCF03F00250066E070E05
:1008D0000616010E076E06500DE006E6E86CD8908D
:1008E0000736010FFDE306D0D89007BED880073247
:1008F000010FFBE3071C066E0350061604C0E9FF58
:1009000005C0EAFF06C0EFFF02380F0B036E890E29
:100910000324046E056A0F0E0522066A890E03265B
:100920000F0E062203C0E9FF06C0EAFFEFCF03F077
:100930000250066E070E0616010E076E06500DE0F9
:1009400006E6E86CD8900736010FFDE306D0D89094
:1009500007BED8800732010FFBE3071C066E035069
:10096000061604C0E9FF05C0EAFF06C0EFFF040158
:100970002651020DF450046EF3CF03F0E00E03266F
:10098000000E042201340130066E0030056E06347C
:10099000063205320634063205320550005C056E1B
:1009A00006500158066EC3CF07F0086A07500526A7
:1009B00008500622C4CF07F0086A07500A6E096A79
:1009C000095005260A50062203C0E9FF04C0EAFFC9
:1009D00005C0EEFF06C0EFFF04012251010A01E04D
:1009E0006AD004012651020DF450046EF3CF03F0D7
:1009F000E00E0324056E000E0420066E05C0E9FF1C
:100A000006C0EAFFEECF00F0EFCF01F0B30E0326F1
:100A1000040E042203C0E9FF04C0EAFFEECF05F094
:100A2000EFCF06F09C0E0526D8A006060150800FD9
:100A3000F36E0650800FF35C02E10550005C0EE29D
:100A40000050640F056E000E0120066E03C0E9FF22
:100A500004C0EAFF05C0EEFF06C0EFFF0401265107
:100A6000020DF450046EF3CF03F0D30E0326040EF0
:100A7000042203C0E9FF04C0EAFFEECF05F0EFCF88
:100A800006F0640E0526D8B0062A0650800FF36ED5
:100A90000150800FF35C02E10050055C0CE29C0EFB
:100AA0000026D8A0010603C0E9FF04C0EAFF00C089
:100AB000EEFF01C0EFFF0401276B0401262B100E8F
:100AC000265D01E3266B04012639E8441F0B006E06
:100AD000016A670E0026030E012200C0E9FF01C073
:100AE000EAFFEFCF00F026C401F0070E0116010E59
:100AF000036E000E046E015006E0E86CD8900336D9
:100B00000436010FFCE3056A005003160550041675
:100B100003500410D880E866D890036A0336035067
:100B2000D8A4B3D0400E04012625006E016A030E3E
:100B3000012200C0E9FF01C0EAFFEFCF00F000444E
:100B4000E844FC0B016E0128C26E230E2625006EC0
:100B5000016A0F0E012200C0E9FF01C0EAFFEFCFDA
:100B600002F00250FF0A01E18CD002380F0B006E38
:100B7000920E0024016E036A0F0E0322046A920E85
:100B800000260F0E042200C0E9FF04C0EAFFEFCFE9
:100B900000F00250046E070E0416010E056E04509C
:100BA0000DE006E6E86CD8900536010FFDE306D0AF
:100BB000D89005BED8800532010FFBE30050051226
:100BC00001C0E9FF03C0EAFF05C0EFFF380E006E69
:100BD0000F0E016E02380F0B036E046A03500026DD
:100BE00004500122380E056E0F0E066E05500326C6
:100BF0000650042203C0E9FF04C0EAFFEFCF03F070
:100C0000070E0216010E046E02500DE006E6E86CB7
:100C1000D8900436010FFDE306D0D89004BED880EA
:100C20000432010FFBE30350041200C0E9FF01C0CE
:100C3000EAFF04C0EFFF0F01458300000000459369
:100C40000F0144930BC0E5FFF2CF0BF0F29E4481FD
:100C50000000000000000000000000000000000094
:100C60000000000000000000000000000000000084
:100C7000000000000000000044910BBEF28EE4CFA3
:100C80000BF0C282010E0401276F04012651E4CF4C
:100C90000AF0E4CF09F0E4CF08F0E4CF07F0E4CFA6
:100CA00006F0E4CF05F0E4CF04F0E4CF03F0E4CFA6
:100CB00002F0E4CF01F0E4CF00F0120000C0E5FF45
:100CC00001C0E5FF02C0E5FF03C0E5FF04C0E5FF8A
:100CD00005C0E5FF06C0E5FF07C0E5FF08C0E5FF6A
:100CE00009C0E5FF0AC0E5FF0BC0E5FF0CC0E5FF4A
:100CF000006A016A026A040E025CD8B0ECD101C03D
:100D000003F0012A100E035CD8B0E5D10401282BB2
:100D1000100E285D01E3286B04012839E8441F0BFD
:100D2000036E046A670E0326030E042203C0E9FF64
:100D300004C0EAFFEFCF03F028C404F0070E041646
:100D4000010E056E000E066E045006E0E86CD890A9
:100D500005360636010FFCE3076A035005160750F7
:100D6000061605500610D880E866D890056A053644
:100D70000550D8A4C0D704012851020DF450046EC8
:100D8000F3CF03F0E00E0324056E000E0420066E80
:100D900005C0E9FF06C0EAFFEECF05F0EFCF06F091
:100DA00025C407F007A09DD0B30E0324076E040EE0
:100DB0000420086E07C0E9FF08C0EAFFEECF07F085
:100DC000EFCF08F00650800FF36E0850800FF35CF1
:100DD00002E10750055C03E2056A066A60D0D30EA3
:100DE0000326040E042203C0E9FF04C0EAFFEECF8D
:100DF00003F0EFCF04F00450800FF36E0650800F25
:100E0000F35C02E10550035C04E205683F0E066EE8
:100E100046D00750055C096E085006580A6EE86A0D
:100E20000ABEFF0E0B6EE56E0B50E56E0A50E56EC6
:100E30000950E56EE56AE56A400EE56E000EE56A6A
:100E400063EC0CF0096EF3CF0AF0F4CF0BF0E9CFAE
:100E50000CF0080EE1260750035C076E085004589A
:100E6000086EE86A08BEFF0E036EE56E0350E56E7D
:100E70000850E56E0750E56E0C50E56E0B50E56EC0
:100E80000A50E56E0950E56EFCEC12F0036EF3CFEC
:100E900004F0080EE1260350056E0450066E0401AE
:100EA0002451800FF36E0650800FF35C02E1055071
:100EB000235D03E3056A066A14D004012351FF0889
:100EC000036E3F0E2455046E0650800FF36E0450DF
:100ED000800FF35C02E10350055C03E305683F0EFD
:100EE000066E04012851020DF450046EF3CF03F096
:100EF000930E0326040E042203C0E9FF04C0EAFF98
:100F0000EECF03F0EFCF04F00350055C036E045006
:100F10000658046ED88004AED89004E3041E036C17
:100F2000D8B4042A022A04012451800FF36E04501D
:100F3000800FF35C02E10350235DD8B0DCD60401DE
:100F40002851020DF450086EF3CF07F0930E0726D8
:100F5000040E082207C0E9FF08C0EAFF05C0EEFF43
:100F600006C0EFFF25C407F007A459D02851020D91
:100F7000F450086EF3CF07F0000E0724096E030E3D
:100F800008200A6E09C0E9FF0AC0EAFFEECF0BF0A5
:100F9000EFCF0CF00B500C10D8B441D05C0E0726EC
:100FA000040E082207C0E9FF08C0EAFFEECF07F0F1
:100FB000EFCF08F00750055C036E08500658046E2A
:100FC00003101CE00450800F800F02E1010E035C4F
:100FD000076A07360C50800F800F02E1010E0B5C90
:100FE0000B6A0B3607500B1809E109C0E9FF0AC06C
:100FF000EAFF03C0EEFF04C0EFFF7DD604012851D5
:10100000020DF450046EF3CF03F0000E0326030E1E
:10101000042203C0E9FF04C0EAFFEE6AEF6A25C4B8
:1010200003F003A244D000500EE100C003F0002AF8
:10103000046A290E0326040E042203C0E9FF04C03B
:10104000EAFF420EEF6E00C003F0002A046A290E88
:101050000326040E042204012851076E640E07269D
:1010600003C0E9FF04C0EAFF07C0EFFF00C003F0C0
:10107000002A046A290E0326040E04220650076E75
:1010800003C0E9FF04C0EAFF07C0EFFF00C003F0A0
:10109000002A046A290E0326040E04220550076E56
:1010A00003C0E9FF04C0EAFF07C0EFFF24D628C44D
:1010B00003F00650E56E0550E56EE56A0350E56EF7
:1010C000000EE56E2B0EE56E4A0EE56E51EC1AF041
:1010D000070EE12610D602C001F000501EE025C424
:1010E00002F002A21AD000C002F0002A036A290E00
:1010F0000226040E032202C0E9FF03C0EAFF0A0E23
:10110000EF6E0050E56E800EE56E040EE56E290E62
:10111000E56EA5EC14F0040EE1260150E4CF0CF0CE
:10112000E4CF0BF0E4CF0AF0E4CF09F0E4CF08F00D
:10113000E4CF07F0E4CF06F0E4CF05F0E4CF04F00D
:10114000E4CF03F0E4CF02F0E4CF01F0E4CF00F00D
:10115000120000C0E5FF01C0E5FF02C0E5FF9EA24E
:1011600000D19E9204010E51040102190FE1040105
:101170000F51040103190AE104011051040104197B
:1011800005E1040111510401051901E042D00401F7
:101190001651D8A4E6D0050E0301625D02E1DD0E12
:1011A000615D32E304011751020BE840010BE8389E
:1011B000E844F46E6650DF0BF410666E1751010BB5
:1011C000010BE838F46E6650EF0BF410666E1741B1
:1011D000E8403F0B676E1751020BE840010BE838FF
:1011E000E844F46EBD50DF0BF410BD6E1751010BD7
:1011F000010BE838F46EBD50EF0BF410BD6E1741D3
:10120000E8403F0BBE6EADD00301613F01D0622BC1
:10121000A8D004011551020BE840010BE838E8445E
:10122000F46E6650DF0BF410666E1551010B010B66
:10123000E838F46E6650EF0BF410666E1541E84026
:101240003F0B676E1551020BE840010BE838E8448C
:10125000F46EBD50DF0BF410BD6E1551010B010B88
:10126000E838F46EBD50EF0BF410BD6E1541E84048
:101270003F0BBE6E0301616B626B04011151800F65
:10128000F36E04010551800FF35C0DE1045104017C
:10129000105D09E10401035104010F5D04E1040143
:1012A000025104010E5D2EE212C400F0016A0050EA
:1012B0000301635F0150645B6451800F810F02E1A1
:1012C000000E635DD8B04DD00301642BFF0E040106
:1012D00002270323042305230251006E016A070E2F
:1012E0000016026AEC0E0026400E0122000E0222B9
:1012F00000C0F6FF01C0F7FF02C0F8FF0900F5CFFC
:1013000001F42FD012C400F0016A005003016327DA
:10131000015064236451800F7F0F02E1010E635D71
:1013200020E3030164070401022B05E3032B03E31D
:10133000043F01D0052B04010251006E016A070E23
:101340000016026AEC0E0026400E0122000E022258
:1013500000C0F6FF01C0F7FF02C0F8FF0900F5CF9B
:1013600001F4A1AC06D0A19C79AC03D089988A9AEB
:10137000A09CA1AA06D0A19A78AC03D08A908A92A8
:10138000A09A9EA02ED09E90A19CA19A01C400F08C
:1013900000A002D0898801D0899801C400F000A281
:1013A00002D08A8A01D08A9A01C400F000A402D037
:1013B0008A8001D08A9001C400F000A602D08A82FF
:1013C00001D08A9279AC03D089988A9A01D0A08CF6
:1013D00078AC03D08A908A9201D0A08AFF0ECF68A1
:1013E000CE6AF0A209D0F09202C406F403C407F456
:1013F00004C408F405C409F4E4CF02F0E4CF01F01A
:10140000E4CF00F01200800EE56E040EE56ED30E00
:10141000E56EE0EC18F0030EE126800EE56E040E9A
:10142000E56EB30EE56EE0EC18F0030EE126800EDB
:10143000E56E040EE56ED50EE56EE0EC18F0030ED9
:10144000E126800EE56E040EE56EB50EE56EE0EC6D
:1014500018F0030EE126800EE56E040EE56ED70E41
:10146000E56EE0EC18F0030EE126800EE56E040E4A
:10147000E56EB70EE56EE0EC18F0030EE126800E87
:10148000E56E040EE56ED90EE56EE0EC18F0030E85
:10149000E126800EE56E040EE56EB90EE56EE0EC19
:1014A00018F0030EE126800EE56E040EE56EDB0EED
:1014B000E56EE0EC18F0030EE126800EE56E040EFA
:1014C000E56EBB0EE56EE0EC18F0030EE126800E33
:1014D000E56E040EE56EDD0EE56EE0EC18F0030E31
:1014E000E126800EE56E040EE56EBD0EE56EE0ECC5
:1014F00018F0030EE126800EE56E040EE56EDF0E99
:10150000E56EE0EC18F0030EE126800EE56E040EA9
:10151000E56EBF0EE56EE0EC18F0030EE126800EDE
:10152000E56E040EE56EE10EE56EE0EC18F0030EDC
:10153000E126800EE56E040EE56EC10EE56EE0EC70
:1015400018F0030EE126800EE56E040EE56EE30E44
:10155000E56EE0EC18F0030EE126800EE56E040E59
:10156000E56EC30EE56EE0EC18F0030EE126800E8A
:10157000E56E040EE56EE50EE56EE0EC18F0030E88
:10158000E126800EE56E040EE56EC50EE56EE0EC1C
:1015900018F0030EE126800EE56E040EE56EE70EF0
:1015A000E56EE0EC18F0030EE126800EE56E040E09
:1015B000E56EC70EE56EE0EC18F0030EE126800E36
:1015C000E56E040EE56EE90EE56EE0EC18F0030E34
:1015D000E126800EE56E040EE56EC90EE56EE0ECC8
:1015E00018F0030EE126800EE56E040EE56EEB0E9C
:1015F000E56EE0EC18F0030EE126800EE56E040EB9
:10160000E56ECB0EE56EE0EC18F0030EE126800EE1
:10161000E56E040EE56EED0EE56EE0EC18F0030EDF
:10162000E126800EE56E040EE56ECD0EE56EE0EC73
:1016300018F0030EE126800EE56E040EE56EEF0E47
:10164000E56EE0EC18F0030EE126800EE56E040E68
:10165000E56ECF0EE56EE0EC18F0030EE126800E8D
:10166000E56E040EE56EF10EE56EE0EC18F0030E8B
:10167000E126800EE56E040EE56ED10EE56EE0EC1F
:1016800018F0030EE126120000C0E5FF01C0E5FFDF
:1016900002C0E5FF03C0E5FF04011F51D8B40AD121
:1016A000A3A81DD0A4A81BD00301725103016F1978
:1016B00005E1FBEC1FF003016F6BFCD0000E030192
:1016C0007225006E016A0F0E012200C0E9FF01C001
:1016D000EAFFEFCF6BF3722B6BC373FFEBD0A4AABF
:1016E000E9D071A205D003017081FBEC1FF0E2D0BC
:1016F00071A405D003017083FBEC1FF0DBD071A057
:1017000048D074CF6BF320C400F0016A008E6BC325
:1017100002F0036A0250001803E10350011801E0CF
:1017200004D0030170897196C5D003016B5104E0A8
:101730006B510401201929E103017099719603018D
:101740006B5103E00301709702D0030170876BC3F4
:1017500074F36DC375F303016D51006E0004030152
:10176000766F600E03017525006E016A000E01227E
:1017700000C0E9FF01C0EAFF6BC3EFFF752B755195
:10178000800A02E10301756B95D00301709971869F
:1017900091D074CF6BF3030170A921D020C400F065
:1017A000016A008E6BC302F0036A0250001803E165
:1017B0000350011801E011D0899CA39A719803018C
:1017C0006F5104E1736AFBEC1FF007D000CF73FF89
:1017D000010E0301726FA3886DD071866BD0030177
:1017E0006B510301742703017551030176191BE145
:1017F000030174510CE175C36DF3030170B712D08E
:10180000899CA39A7198736AFBEC1FF00BD00301BB
:10181000708570B707D0899CA39A7198010E736E7A
:10182000FBEC1FF047D00301755103016E1908E16D
:1018300003016E5103016D1903E0FBEC1FF03AD078
:101840006DC300F0016A004A012AE56A800EE56E68
:101850000150E56E0050E56E22EC16F0006E040EAD
:10186000E126005003016C6F030175190FE16BC392
:1018700000F01F0E00140301766F006E020E0024AC
:10188000766F03016D5103017627769F75C300F0D3
:101890000301752B016A600E0026000E012200C0B4
:1018A000E9FF01C0EAFF6BC3EFFF7551800A02E157
:1018B0000301756BE4CF03F0E4CF02F0E4CF01F055
:1018C000E4CF00F01200D9CFE5FFE1CFD9FF00C08F
:1018D000E5FF01C0E5FF02C0E5FF03C0E5FF04C06E
:1018E000E5FF05C0E5FF06C0E5FF07C0E5FF020E06
:1018F000DBCF00F0030EDBCF01F0040EDBCF02F0F4
:10190000050EDBCF03F0060EDBCF04F0070EDBCFB6
:1019100005F0080EDBCF06F0090EDBCF07F0005014
:101920000401856F0150866F0250876F0350886FE6
:10193000045004018A6F05508B6F06508C6F07505E
:101940008D6F0401855104018C03F4CF01F0F3CFB6
:1019500000F000500401906F0150916F0401855117
:1019600004018A03F4CF01F0F3CF00F0005004012A
:101970008E6F01508F6F0401885104018A03F3CFE9
:1019800000F00401915100260050916F040187512D
:1019900004018B03F3CF01F0015000260050040135
:1019A000916F0401875104018A03F4CF01F0F3CF52
:1019B00000F0040190510026915101220050906FD7
:1019C0000150916F0401865104018B03F4CF03F0A1
:1019D000F3CF02F002500026035001220050040110
:1019E000906F0150916F0401865104018C03F3CF75
:1019F00000F000500301536F0401865104018A0373
:101A0000F4CF01F0F3CF00F000500301516F01500B
:101A1000526F0401855104018D03F3CF00F0005093
:101A20000301576F0401855104018B03F4CF01F0CA
:101A3000F3CF00F000500301556F0150566F0301C2
:101A4000506B0301546B0301505104018E25006E4D
:101A50000301515104018F21016E03015251040110
:101A60009021026E0301535104019121036E005035
:101A70008E6F01508F6F0250906F0350916F030172
:101A8000545104018E25006E0301555104018F212C
:101A9000016E0301565104019021026E030157515A
:101AA00004019121036E03C0E9FF02C0F4FF01C0ED
:101AB000F3FF0050E4CF07F0E4CF06F0E4CF05F0E9
:101AC000E4CF04F0E4CF03F0E4CF02F0E4CF01F080
:101AD000E4CF00F0E4CFD9FF120000C0E5FF01C061
:101AE000E5FF02C0E5FF03C0E5FF04C0E5FF05C058
:101AF000E5FF06C0E5FF07C0E5FFF4EC1CF0006E53
:101B0000020A12E00050030A14E00050040A23E025
:101B10000050050A25E00050060A01E14AD00050B5
:101B20000A0A01E181D0A8D0F4EC1CF00401186F7E
:101B3000A3D0F4EC1CF0006EFF0A04E1010E0401D6
:101B4000166F9AD00050FE0A03E10401166B94D080
:101B500000C015F491D0F4EC1CF00401126F8CD08D
:101B6000F4EC1CF0036E026AF4EC1CF0016A02262D
:101B7000015003220350076E0250066E046A056A84
:101B8000F4EC1CF0036E016AF4EC1CF0006A012610
:101B900000500322026A0150041004010E6F03502A
:101BA00005100F6F00500610106F02500710116FD4
:101BB00063D0F4EC1CF0036E026AF4EC1CF0016AD2
:101BC0000226015003220350076E0250066E046A7B
:101BD000056AF4EC1CF0036E016AF4EC1CF0006A78
:101BE0000126005003220150041203500512005038
:101BF0000612071208C0E5FFF2CF08F0F29E04C0FB
:101C000002F405C003F406C004F407C005F404C0E0
:101C10000EF405C00FF406C010F407C011F408BE9E
:101C2000F28EE4CF08F028D0F4EC1CF0036E026AC8
:101C3000F4EC1CF0016A0226015003220250020B50
:101C4000E840010BE838E844F46E0F015D51DF0B0A
:101C5000F4105D6F0250010B010BE838F46E5D511A
:101C6000EF0BF4105D6FD89003320232D89003323C
:101C7000023202500F015E6FE4CF07F0E4CF06F0AE
:101C8000E4CF05F0E4CF04F0E4CF03F0E4CF02F0BA
:101C9000E4CF01F0E4CF00F01200D9CFE5FFE1CFAF
:101CA000D9FF00C0E5FF01C0E5FF02C0E5FF03C0AA
:101CB000E5FF04C0E5FF05C0E5FF06C0E5FF07C07E
:101CC000E5FF08C0E5FF09C0E5FF0AC0E5FF0BC05E
:101CD000E5FF0CC0E5FF0DC0E5FF0EC0E5FF0FC03E
:101CE000E5FF020EDBCF00F0030EDBCF01F0040EA8
:101CF000DBCF02F0050EDBCF03F0060EDBCF04F0E6
:101D0000070EDBCF05F0080EDBCF06F0200E076EC6
:101D1000086A06C009F00A6A0B6A0C6AE56AE56A95
:101D2000E56A0950E56E0350E56E0250E56E01501C
:101D3000E56E0050E56E9FEC10F00D6E080EE1268A
:101D4000300E0D263A0E0D5C05E30D500E6E270E7B
:101D50000E240D6EFF0E07260822200E07240E6E9D
:101D6000030E08200F6E0EC0E9FF0FC0EAFF0DC082
:101D7000EFFF0C50E56E0B50E56E0A50E56E095012
:101D8000E56E0350E56E0250E56E0150E56E0050C1
:101D9000E56EFCEC12F0006EF3CF01F0F4CF02F030
:101DA000E9CF03F0080EE1260050011002100310E5
:101DB000D8A4AFD707C000F008C001F004C002F0FB
:101DC00005C003F000C004F001C005F0004A012A7C
:101DD000200E0426030E052204C0E9FF05C0EAFF19
:101DE000EFCF04F002C0E9FF03C0EAFF04C0EFFF39
:101DF000024A032A000E015C02E1200E005CE2E3CD
:101E000002C0E9FF03C0EAFF000EEF6AE4CF0FF063
:101E1000E4CF0EF0E4CF0DF0E4CF0CF0E4CF0BF004
:101E2000E4CF0AF0E4CF09F0E4CF08F0E4CF07F004
:101E3000E4CF06F0E4CF05F0E4CF04F0E4CF03F004
:101E4000E4CF02F0E4CF01F0E4CF00F0E4CFD9FF1B
:101E5000120000C0E5FF01C0E5FF02C0E5FF03C0BE
:101E6000E5FF05C0E5FF84EC20F0949E0F015A6B5E
:101E70000F015A830C0E0F015D6F89988A9A8A9020
:101E80008A928A868A889298939A9396939093924C
:101E900093989492636A6380666E9494B96AB980E9
:101EA000BD6EBA84BA86006ABAB6002A0050010B29
:101EB000E838F46EBA50EF0BF410BA6E006ABAB894
:101EC000002A0050010BE838E844F46EBA50DF0BEA
:101ED000F410BA6E006ABABA002A0050010BE8404A
:101EE000E840F46EBA50BF0BF410BA6E9F829E9217
:101EF0009D82CD80CD503F0BCD6ECD88CD9ACF68E1
:101F0000CE6A9F809E909D807988798E7950FC0B57
:101F1000796E77967888788E7850FC0B0109786E08
:101F20007794A19CA09CA28CA19AA09AA28A28EC4A
:101F300015F0F19E9384810E006E0F0E016E0F0E50
:101F4000036E380E0026035001220F0E036E800E22
:101F5000005E0350015A810E026E0F0E036E0F0ECB
:101F6000056E380E0226055003220F0E056E800EF8
:101F7000025E0550035A02C0E9FF03C0EAFFEFCF3B
:101F800002F0029400C0E9FF01C0EAFF02C0EFFFC7
:101F9000F198F08EF092F08864EC20F0CAEC1CF01E
:101FA000F3CF01F0F4CF02F0E9CF03F0880F040182
:101FB0007C6F130E01207D6F000E02207E6F000EDD
:101FC00003207F6FE4CF05F0E4CF03F0E4CF02F00D
:101FD000E4CF01F0E4CF00F0120000C0E5FF01C043
:101FE000E5FF02C0E5FF03C0E5FF0EEC04F03CECAA
:101FF00011F0CAEC1CF0006EF3CF01F0F4CF02F048
:10200000E9CF03F004017C51005E7D51015A7E51FD
:10201000025A7F51035A039E3F0E035C08E1FF0EF4
:10202000025C05E1FF0E015C02E1FF0E005CD8B02E
:102030007DD0CAEC1CF0F3CF01F0F4CF02F0E9CF71
:1020400003F0880F04017C6F130E01207D6F000EDA
:1020500002207E6F000E03207F6F040106510401F1
:102060000A190FE10401075104010B190AE10401E7
:10207000085104010C1905E10401095104010D196D
:1020800022E006C40AF407C40BF408C40CF409C423
:102090000DF4420E69EC1CF0020E69EC1CF0040118
:1020A0000D5169EC1CF004010C51006E69EC1CF040
:1020B00004010B5169EC1CF004010A5169EC1CF09D
:1020C0000A0E69EC1CF019C400F004011907005055
:1020D0002DE118C419F4420E69EC1CF0010E69ECF4
:1020E0001CF00401055169EC1CF004010451006E60
:1020F00069EC1CF00401035169EC1CF0040102516D
:1021000069EC1CF00401115169EC1CF00401105140
:10211000006E69EC1CF004010F5169EC1CF0040125
:102120000E5169EC1CF00A0E69EC1CF0E4CF03F0D0
:10213000E4CF02F0E4CF01F0E4CF00F01200D9CFF9
:10214000E5FFE1CFD9FF00C0E5FF01C0E5FF02C018
:10215000E5FF03C0E5FF04C0E5FF05C0E5FF06C0DD
:10216000E5FF07C0E5FF08C0E5FF09C0E5FF0AC0BD
:10217000E5FF020EDBCF00F0030EDBCF01F0040E13
:10218000DBCF02F0050EDBCF03F0060EDBCF04F051
:10219000070EDBCF05F0080EDBCF06F0090EDBCF14
:1021A00007F0086A045005100610071005E1E968F9
:1021B000F468F368E86847D0096A0750800BE84480
:1021C0000A6E0A501BE1045004260536063607360F
:1021D0000750035C08E10650025C05E10550015C14
:1021E00002E10450005C06E2D89007320632053264
:1021F000043204D0092A09C008F0DFD70750035C75
:1022000008E10650025C05E10550015C02E1045062
:10221000005C08E30450005E0550015A0650025A63
:102220000750035AD890073206320532043208C0EC
:1022300009F008060950E2E103C0E9FF02C0F4FF1B
:1022400001C0F3FF0050E4CF0AF0E4CF09F0E4CF7F
:1022500008F0E4CF07F0E4CF06F0E4CF05F0E4CFD8
:1022600004F0E4CF03F0E4CF02F0E4CF01F0E4CFD8
:1022700000F0E4CFD9FF120000C0E5FF01C0E5FF88
:1022800002C0E5FF03C0E5FF04C0E5FF03016E5196
:1022900003016D1901E16AD06EC300F00050016EB8
:1022A0000128006E009E600E0024016E026A000E7E
:1022B000022201C0E9FF02C0EAFFEFCF78F31F0E50
:1022C000030178176EC377F37851030177277751AD
:1022D000016E020E0124776F779FF4EC1CF0016E03
:1022E000015003E1016A012A01D0016AF4EC1CF0FB
:1022F0000301786F78C302F0800E021678C303F0F2
:102300001F0E031603C004F003C078F3045003E16A
:102310006DC36EF33ED001501EE0025025E0F4EC98
:102320001CF0006E03017851016E0104786F0050BB
:10233000420A1AE000504E0A03E10FEC1AF014D0E2
:102340000050460A03E12FEC20F00ED00050490A5D
:102350000BE1FF0009D06EC379F3025003E0D0EC2B
:102360001AF002D06DEC0DF077C36EF304011C512E
:1023700004011D1906E003016F5103E1D4EC11F0D3
:1023800008D089BC06D003016F5103E172B2FBECA7
:102390001FF0E4CF04F0E4CF03F0E4CF02F0E4CF89
:1023A00001F0E4CF00F0120000C0E5FF01C0E5FF3E
:1023B00002C0E5FF03C0E5FF04C0E5FF72A27ED0C6
:1023C00022EC1EF0006E005005E104011D6B0401BB
:1023D0001C6B74D01DC401F00050012622EC1EF0CD
:1023E000026E0050036E0304006E0250230A1FE1C8
:1023F000010E005CD8A060D022EC1EF0026E690ACB
:1024000003E19AEC1CF058D00250720A03E1FBEC95
:102410001FF052D00250730A01E04ED0898C7186B1
:10242000A38AA398745074507198718845D0025053
:10243000430A05E00250420A01E03ED006D000C047
:1024400003F0046A038E0350006E00C071F3005065
:102450000F01006F010E0301726F04011D5101187D
:1024600014E022EC1EF0026E03017127000E03013E
:102470007225006E036A0F0E032200C0E9FF03C03D
:10248000EAFF02C0EFFF722BE8D7000E03017225AE
:10249000006E026A0F0E02220301711D036E032AF1
:1024A00000C0E9FF02C0EAFF03C0EFFF0301722B87
:1024B00072C36FF30301696B01C01DF4E4CF04F034
:1024C000E4CF03F0E4CF02F0E4CF01F0E4CF00F07A
:1024D0001200D9CFE5FFE1CFD9FF00C0E5FF01C071
:1024E000E5FF02C0E5FF03C0E5FF04C0E5FF05C04E
:1024F000E5FF06C0E5FF07C0E5FF08C0E5FF09C02E
:10250000E5FF0AC0E5FF020EDBCF00F0030EDBCFD4
:1025100001F0040EDBCF02F0050EDBCF03F0060E58
:10252000DBCF04F0070EDBCF05F00038E8441F0BCB
:10253000066E076A670E0626030E072206C0E9FF2D
:1025400007C0EAFFEFCF08F00050096E070E09162A
:10255000010E0A6E09500DE006E6E86CD8900A36C6
:10256000010FFDE306D0D8900ABED8800A32010FD1
:10257000FBE308500A1206C0E9FF07C0EAFF0AC0E1
:10258000EFFF400E0024066E076A030E072206C006
:10259000E9FF07C0EAFF01C0EFFF016A230E002632
:1025A0000F0E0122800E025E070E02160238F00B9B
:1025B000036E070E05160550032600C0E9FF01C093
:1025C000EAFF03C0EFFFE4CF0AF0E4CF09F0E4CF65
:1025D00008F0E4CF07F0E4CF06F0E4CF05F0E4CF55
:1025E00004F0E4CF03F0E4CF02F0E4CF01F0E4CF55
:1025F00000F0E4CFD9FF1200D9CFE5FFE1CFD9FF3A
:1026000000C0E5FF01C0E5FF02C0E5FF03C0E5FF34
:1026100004C0E5FF05C0E5FF06C0E5FF07C0E5FF14
:1026200008C0E5FF09C0E5FF0AC0E5FF0BC0E5FFF4
:102630000CC0E5FF0DC0E5FF020EDBCF00F0030E7E
:10264000DBCF01F0040EDBCF02F0050EDBCF03F091
:10265000060EDBCF04F0070EDBCF05F0080EDBCF54
:1026600006F0090EDBCF07F0086A096A0A6A0B6AEE
:10267000200E0C6E0350800BE8440D6E00500026B7
:102680000136023603360850082609360A360B365C
:102690000D50D8A4088007500B5C08E106500A5C76
:1026A00005E10550095C02E10450085C09E30450AF
:1026B000085E0550095A06500A5A07500B5A008006
:1026C0000C040D6E0DC00CF00D50D4E103C0E9FFF9
:1026D00002C0F4FF01C0F3FF0050E4CF0DF0E4CFDF
:1026E0000CF0E4CF0BF0E4CF0AF0E4CF09F0E4CF34
:1026F00008F0E4CF07F0E4CF06F0E4CF05F0E4CF34
:1027000004F0E4CF03F0E4CF02F0E4CF01F0E4CF33
:1027100000F0E4CFD9FF120000C0E5FF01C0E5FFE3
:1027200003C0E5FF04C0E5FF05C0E5FF06C0E5FF07
:1027300007C0E5FF08C0E5FF09C0E5FF0AC0E5FFE7
:102740000BC0E5FF65C300F066C301F00301653F00
:1027500001D0662B0050E56EEDEC1FF0E652076EDF
:10276000046A056A066A65C300F066C301F00301E6
:10277000653F01D0662B0050E56EEDEC1FF0E65290
:102780000B6A0A6E086A0850041205120A500612F3
:102790000B50071265C300F066C301F00301653FEB
:1027A00001D0662B0050E56EEDEC1FF0E652036E93
:1027B000006A03C001F0E86A03BEFF0E086E096EEE
:1027C0000050041201500512085006120950071259
:1027D00065C300F066C301F00301653F01D0662BBD
:1027E0000050E56EEDEC1FF0E652016A0412015054
:1027F00005120612071207C0E9FF06C0F4FF05C064
:10280000F3FF0450E4CF0BF0E4CF0AF0E4CF09F07B
:10281000E4CF08F0E4CF07F0E4CF06F0E4CF05F012
:10282000E4CF04F0E4CF03F0E4CF01F0E4CF00F014
:102830001200D9CFE5FFE1CFD9FF00C0E5FF01C00D
:10284000E5FF02C0E5FF03C0E5FF04C0E5FF05C0EA
:10285000E5FF06C0E5FF07C0E5FF020EDBCF00F095
:10286000030EDBCF01F0040EDBCF02F0050EDBCF51
:1028700003F002C006F00650046E800A33E100C087
:10288000E9FF01C0F3FF025098EC1EF0056EF3CF94
:1028900006F0F4CF07F003C0E5FF05C0E9FF06C06E
:1028A000F3FF075045EC20F000C0E9FF01C0F3FF43
:1028B000025098EC1EF0056EF3CF06F0F4CF07F04F
:1028C000052A02E3064A072A05C0E5FF06C0F4FF11
:1028D00007C0F6FF00C0E9FF01C0F3FF0250DEECC5
:1028E0001FF020D004C000F000AA1CD0007A0050D5
:1028F000046E04E1035089EC20F014D00450010A66
:1029000004E1035002EC00F00DD004500F0A04E182
:10291000035069EC1CF006D004500E0A03E103508A
:102920009CEC20F0E4CF07F0E4CF06F0E4CF05F014
:10293000E4CF04F0E4CF03F0E4CF02F0E4CF01F001
:10294000E4CF00F0E4CFD9FF1200D9CFE5FFE1CF0B
:10295000D9FF00C0E5FF01C0E5FF02C0E5FF03C0ED
:10296000E5FF04C0E5FF05C0E5FF06C0E5FF07C0C1
:10297000E5FF020EDBCF00F0030EDBCF01F0040E0B
:10298000DBCF02F0050EDBCF03F01DC41EF4040103
:102990001C5104011E5F1E51046E04041E6F03C00F
:1029A00004F0056A030E0426D8B0052A1EC406F0FA
:1029B000076A0750800FF36E0550800FF35C02E149
:1029C0000450065C02E2E86830D0020E035C02E2CA
:1029D000E86A2BD00350046E0404036EE56E4AECE3
:1029E0001BF0E652046A0350045C14E20450002415
:1029F000056EE86A0120066EE86A022005C0E9FF5C
:102A000006C0F3FFCDEC1FF0042AE56E4AEC1BF084
:102A1000E652E9D71DC41EF404011C5104011E5FD7
:102A20001E51006E00041E6FE86AE4CF07F0E4CF89
:102A300006F0E4CF05F0E4CF04F0E4CF03F0E4CFF8
:102A400002F0E4CF01F0E4CF00F0E4CFD9FF1200B0
:102A500000C0E5FF01C0E5FF02C0E5FF03C0E5FFE0
:102A600004C0E5FF006A670E0024016E026A030ECF
:102A7000022201C0E9FF02C0EAFFEF6A002A020E4B
:102A8000005CF1E3006A0050020DF450026EF3CFD7
:102A900001F0E00E0124036E000E0220046E03C05C
:102AA000E9FF04C0EAFFEE6AEF6A5C0E0124036EE0
:102AB000040E0220046E03C0E9FF04C0EAFFEE6AC0
:102AC000EF6A930E0124036E040E0220046E03C00D
:102AD000E9FF04C0EAFFEE6AEF6AB30E0124036E59
:102AE000040E0220046E03C0E9FF04C0EAFFEE6A90
:102AF000EF6AD30E0126040E022201C0E9FF02C0D4
:102B0000EAFFEE687F0EEF6E230E0024016E026A6C
:102B10000F0E022201C0E9FF02C0EAFFEF68002A9F
:102B2000100E005CD8A0AFD7AF0EC06EC16A010E08
:102B3000C26EC282E4CF04F0E4CF03F0E4CF02F02F
:102B4000E4CF01F0E4CF00F01200432041202564DF
:102B50002025640A0000D9CFE5FFE1CFD9FF00C0EE
:102B6000E5FF01C0E5FF02C0E5FF03C0E5FF04C0CB
:102B7000E5FF05C0E5FF020EDBCF00F0030EDBCF63
:102B800001F0040EDBCF02F00050020DF450036E92
:102B9000F3CF00F05C0E0024046E040E0320056EDB
:102BA00004C0E9FF05C0EAFF01C0EEFF02C0EFFF6D
:102BB000930E0024046E040E0320056E04C0E9FF8A
:102BC00005C0EAFFEECF04F0EFCF05F00150045C42
:102BD000016E02500558026E000E0026030E0322FD
:102BE00000C0E9FF03C0EAFF01C0EEFF02C0EFFF33
:102BF000D88002AED89004E3021E016CD8B4022A39
:102C00000250800F800F02E1030E015C02E2016AB4
:102C1000026A0150021007E100C0E9FF03C0EAFFA9
:102C2000000EEE6AEF6AE4CF05F0E4CF04F0E4CFE3
:102C300003F0E4CF02F0E4CF01F0E4CF00F0E4CF02
:102C4000D9FF1200D9CFE5FFE1CFD9FF00C0E5FFE2
:102C500001C0E5FF02C0E5FF03C0E5FF04C0E5FFDA
:102C600005C0E5FF06C0E5FF020EDBCF00F0030E56
:102C7000DBCF01F0040EDBCF02F0050EDBCF03F05B
:102C8000D88001AED890046A0436045007E0011CD5
:102C9000066E001C056E054A062A04D000C005F029
:102CA00001C006F0D88003AED89007E3031C016E84
:102CB000021C006E004A012A04D002C000F003C0CA
:102CC00001F00150E56E0050E56E0650E56E0550CE
:102CD000E56E31EC18F0006EF3CF01F0040EE12642
:102CE00004500AE0011C036E001C026E024A032A13
:102CF00003C0F3FF025003D001C0F3FF0050E4CF44
:102D000006F0E4CF05F0E4CF04F0E4CF03F0E4CF25
:102D100002F0E4CF01F0E4CF00F0E4CFD9FF1200DD
:102D2000D9CFE5FFE1CFD9FF00C0E5FF01C0E5FF46
:102D300002C0E5FF03C0E5FF04C0E5FF05C0E5FFF5
:102D4000020EDBCF00F0030EDBCF01F0040EDBCF71
:102D500002F0050EDBCF03F065C304F066C305F097
:102D60000301653F01D0662B0350E56E0450E56E0C
:102D7000DEEC1DF0E652E65265C304F066C305F0D2
:102D80000301653F01D0662B0250056EE56E0450CD
:102D9000E56EDEEC1DF0E652E65265C304F066C354
:102DA00005F00301653F01D0662B0150E56E04502C
:102DB000E56EDEEC1DF0E652E65265C304F066C334
:102DC00005F00301653F01D0662B0050E56E04500D
:102DD000E56EDEEC1DF0E652E652E4CF05F0E4CFFE
:102DE00004F0E4CF03F0E4CF02F0E4CF01F0E4CF4D
:102DF00000F0E4CFD9FF1200D9CFE5FFE1CFD9FF32
:102E000000C0E5FF01C0E5FF02C0E5FF03C0E5FF2C
:102E100004C0E5FF05C0E5FF06C0E5FF020EDBCFFD
:102E200000F0030EDBCF01F00038E8441F0B026E08
:102E3000036A670E0226030E032202C0E9FF03C0E5
:102E4000EAFFEFCF04F00050056E070E0516010EE5
:102E5000066E05500DE006E6E86CD8900636010FC8
:102E6000FDE306D0D89006BED8800632010FFBE302
:102E70000450061202C0E9FF03C0EAFF06C0EFFFDC
:102E8000400E0024026E036A030E032202C0E9FF13
:102E900003C0EAFF01C0EFFF016A230E00260F0EF8
:102EA000012200C0E9FF01C0EAFFFF0EEF68E4CF96
:102EB00006F0E4CF05F0E4CF04F0E4CF03F0E4CF74
:102EC00002F0E4CF01F0E4CF00F0E4CFD9FF12002C
:102ED000D9CFE5FFE1CFD9FF00C0E5FF01C0E5FF95
:102EE00002C0E5FF03C0E5FF04C0E5FF05C0E5FF44
:102EF00006C0E5FF020EDBCF00F0030EDBCF01F0D2
:102F0000040EDBCF02F00401375119E18CEC13F011
:102F1000036EF3CF04F0F4CF05F0E9CF06F003C061
:102F2000E5FF04C0F4FF05C0F6FF06C0F7FF00C0D0
:102F3000E9FF01C0F3FF0250BCEC1FF01ED00401FA
:102F40003751010A1AE100C0E9FF01C0F3FF025046
:102F500002EC1EF0006EF3CF01F0F4CF02F0E9CFE7
:102F600003F00350E56E0250E56E0150E56E00502F
:102F7000E56E90EC16F0040EE126E4CF06F0E4CF07
:102F800005F0E4CF04F0E4CF03F0E4CF02F0E4CFA7
:102F900001F0E4CF00F0E4CFD9FF1200D9CFE5FF74
:102FA000E1CFD9FF00C0E5FF01C0E5FF02C0E5FFAA
:102FB00003C0E5FF04C0E5FF05C0E5FF06C0E5FF6F
:102FC000020EDBCF00F0030EDBCF01F0040EDBCFEF
:102FD00002F0050EDBCF03F0060EDBCF04F0070E88
:102FE000DBCF05F0080EDBCF06F0D88003AED8901B
:102FF00015E306500A0A12E104C0E9FF05C0EAFF22
:103000002D0EEF6E044A052A031E021E011E006CDF
:1030100005E1012A03E1022AD8B4032A0650E56E2D
:103020000550E56E0450E56E0350E56E0250E56E06
:103030000150E56E0050E56E4DEC0EF0070EE126F6
:10304000E4CF06F0E4CF05F0E4CF04F0E4CF03F0E2
:10305000E4CF02F0E4CF01F0E4CF00F0E4CFD9FFF9
:103060001200D9CFE5FFE1CFD9FF00C0E5FF01C0D5
:10307000E5FF02C0E5FF03C0E5FF04C0E5FF05C0B2
:10308000E5FF06C0E5FF020EDBCF00F0030EDBCF4D
:1030900001F0040EDBCF02F0050EDBCF03F0046A73
:1030A000056A0350800BE844066E065011E1025099
:1030B000022603360350015C02E10250005C04E288
:1030C000D8900332023204D0052A05C004F0E9D7B3
:1030D0000350015C02E10250005C04E30250005E18
:1030E0000350015AD8900332023204C005F004069E
:1030F0000550EEE101C0F3FF0050E4CF06F0E4CF4D
:1031000005F0E4CF04F0E4CF03F0E4CF02F0E4CF25
:1031100001F0E4CF00F0E4CFD9FF120000C0E5FFDA
:1031200001C0E5FF02C0E5FF03C0E5FF6EC300F08C
:10313000016A79C302F0036A0250005E0350015A2B
:10314000E56A800EE56E0150E56E0050E56E22ECFA
:1031500016F0006E040EE126000679C301F0430E5E
:1031600069EC1CF0200E69EC1CF0005020E0600EB1
:103170000124026E036A000E032202C0E9FF03C0AD
:10318000EAFFEFCF02F0E56A0250E56E000EE56E51
:10319000400EE56E0E0EE56E51EC1AF0050EE126BE
:1031A000012A0150800A01E1016A0006DED7E4CF5E
:1031B00003F0E4CF02F0E4CF01F0E4CF00F012001E
:1031C000D9CFE5FFE1CFD9FF00C0E5FF01C0E5FFA2
:1031D00002C0E5FF03C0E5FF04C0E5FF020EDBCF40
:1031E00000F0030EDBCF01F0040EDBCF02F0040190
:1031F000375111E135EC1CF0036EF3CF04F003C03E
:10320000E5FF04C0F4FF00C0E9FF01C0F3FF025076
:1032100017EC20F016D004013751010A12E100C06A
:10322000E9FF01C0F3FF025057EC1FF0006EF3CF2F
:1032300001F00150E56E0050E56E0DEC1BF0E6521A
:10324000E652E4CF04F0E4CF03F0E4CF02F0E4CFA1
:1032500001F0E4CF00F0E4CFD9FF1200FA0EF66ED1
:10326000400EF76E000EF86E0900F550056E09006D
:10327000F550066E04E1056702D07BEF19F00900F6
:10328000F550006E0900F550016E0900F550026E10
:1032900009000900F550E96E0900F550EA6E0900D1
:1032A00009000900F550036E0900F550046E09008D
:1032B0000900F6CF07F0F7CF08F0F8CF09F000C00B
:1032C000F6FF01C0F7FF02C0F8FF035002E104500F
:1032D00007E00900F550EE6E0306F8E20406F9D7A0
:1032E00007C0F6FF08C0F7FF09C0F8FF050601E2B6
:1032F00006063AEF19F01200D9CFE5FFE1CFD9FF6A
:1033000000C0E5FF01C0E5FF02C0E5FF03C0E5FF27
:1033100004C0E5FF020EDBCF00F00038E8441F0BCD
:10332000016E026A670E0126030E022201C0E9FF48
:1033300002C0EAFFEFCF03F0070E0016010E046E85
:1033400000500DE006E6E86CD8900436010FFDE36E
:1033500006D0D89004BED8800432010FFBE3041CD1
:10336000006E0350001601C0E9FF02C0EAFF00C072
:10337000EFFFE4CF04F0E4CF03F0E4CF02F0E4CFBA
:1033800001F0E4CF00F0E4CFD9FF1200D9CFE5FF80
:10339000E1CFD9FF00C0E5FF01C0E5FF02C0E5FFB6
:1033A00003C0E5FF04C0E5FF05C0E5FF020EDBCF6B
:1033B00000F00050010A22E1016A0150020DF450B0
:1033C000036EF3CF02F0B30E0224046E040E03204A
:1033D000056E04C0E9FF05C0EAFFEE687F0EEF6EE0
:1033E000D30E0226040E032202C0E9FF03C0EAFF47
:1033F000EE6AEF6A012A100E015CDFE300C022F4DE
:10340000E4CF05F0E4CF04F0E4CF03F0E4CF02F022
:10341000E4CF01F0E4CF00F0E4CFD9FF120000C008
:10342000E5FF01C0E5FF02C0E5FFF4EC1CF0006E13
:10343000F4EC1CF0016E0050026ED00E0224006EFF
:103440000A0E005C05E30050026EF90E0224006EC5
:103450000150026ED00E0224016E0A0E015C05E3DB
:103460000150026EF90E0224016E080E005C12E299
:10347000100E015CD8B00ED00038F00B0124006EA5
:10348000FBEC1BF0016E015005E10050E56ECDEC48
:103490001EF0E652E4CF02F0E4CF01F0E4CF00F0FA
:1034A0001200D9CFE5FFE1CFD9FF00C0E5FF01C091
:1034B000E5FF02C0E5FF020ED924006E000EDA20FF
:1034C000016E800E026E030E0026000E0122022203
:1034D0000250E56E0150E56E0050E56E040EDBCF44
:1034E000E5FF030EDBCFE5FF020EDBCFE5FF0301B7
:1034F0005A51E56E5951E56E5851E56E0EEC00F0EB
:10350000006EF3CF01F0090EE12601C0F3FF005079
:10351000E4CF02F0E4CF01F0E4CF00F0E4CFD9FF34
:103520001200D9CFE5FFE1CFD9FF00C0E5FF01C010
:10353000E5FF02C0E5FF03C0E5FF020EDBCF00F0B0
:10354000030EDBCF01F0040EDBCF02F00401375194
:103550000DE12BEC1FF0036E03C0E5FF00C0E9FF97
:1035600001C0F3FF025045EC20F00FD004013751A9
:10357000010A0BE100C0E9FF01C0F3FF0250CDECEE
:103580001FF0E56E93EC1DF0E652E4CF03F0E4CFBC
:1035900002F0E4CF01F0E4CF00F0E4CFD9FF120055
:1035A00000C0E5FF01C0E5FFF4EC1CF0006E4C0A22
:1035B00008E1F4EC1CF0300A02E0898E29D0899EE3
:1035C00027D00050450A24E1000EE56E400EE56E5E
:1035D000F40EE56E51EC1AF0030EE12696EC20F0A5
:1035E000006E00C001F0000601500FE0F4EC1CF08A
:1035F000E56AE56E000EE56E400EE56EF60EE56ED0
:1036000051EC1AF0050EE126ECD70A0E69EC1CF01D
:10361000E4CF01F0E4CF00F01200D9CFE5FFE1CF15
:10362000D9FF00C0E5FF01C0E5FF02C0E5FF03C010
:10363000E5FF020EDBCF00F0030EDBCF01F065C328
:1036400002F066C303F00301653F01D0662B015011
:10365000E56E0250E56EDEEC1DF0E652E65265C303
:1036600002F066C303F00301653F01D0662B0050F2
:10367000E56E0250E56EDEEC1DF0E652E652E4CF58
:1036800003F0E4CF02F0E4CF01F0E4CF00F0E4CFA8
:10369000D9FF1200D9CFE5FFE1CFD9FF00C0E5FF88
:1036A00001C0E5FF02C0E5FF03C0E5FF04C0E5FF80
:1036B000020EDBCF00F01CC401F0026A014A022AAC
:1036C0001DC403F0046A0150031803E102500418FA
:1036D00001E001D00ED0000E04011C25016E026A2B
:1036E000010E022201C0E9FF02C0EAFF00C0EFFFA5
:1036F0001C2BE4CF04F0E4CF03F0E4CF02F0E4CFDE
:1037000001F0E4CF00F0E4CFD9FF1200D9CFE5FFFC
:10371000E1CFD9FF00C0E5FF01C0E5FF02C0E5FF32
:1037200003C0E5FF020EDBCF00F0016A79C302F0AF
:10373000036A0250002603500122E56A800EE56EFE
:103740000150E56E0050E56E22EC16F0006EF3CFEE
:1037500001F0040EE126600E0026000E012200C0DA
:10376000E9FF01C0EAFFEFCF00F00050E4CF03F023
:10377000E4CF02F0E4CF01F0E4CF00F0E4CFD9FFD2
:103780001200F3CFE5FFF4CFE5FFE9CFE5FFEACF85
:10379000E5FFFACFE5FFFBCFE5FF04011A510F016A
:1037A000356F04011B510F01366FD650336FD75060
:1037B000346FF2A411D004011A3F01D01B2BF294F4
:1037C00004011A510F01356F04011B510F01366FAF
:1037D000D650336FD750346F90EC20F0E4CFFBFF1E
:1037E000E4CFFAFFE4CFEAFFE4CFE9FFE4CFF4FF50
:1037F000E4CFF3FF110000C0E5FF01C0E5FF02C008
:10380000E5FF010E006EF4EC1CF0016E01C002F049
:10381000015023E00050E56EEDEC1FF0016EE65222
:10382000015010E10A0E005C0BE20A0E006EE56E1C
:10383000EDEC1FF0016EE652015004E1E8680ED095
:10384000E8680CD00150021802E0E86807D0002AAE
:103850001B0E005CD8E3E86801D0E86AE4CF02F010
:10386000E4CF01F0E4CF00F0120000C0E5FF01C09A
:10387000E5FF02C0E5FF03C0E5FF65C300F066C3D6
:1038800001F00301653F01D0662B0050E56EEDECC1
:103890001FF0E652036E026A65C300F066C301F0D2
:1038A0000301653F01D0662B0050E56EEDEC1FF083
:1038B000E652016A02120150031203C0F3FF0250E4
:1038C000E4CF03F0E4CF02F0E4CF01F0E4CF00F066
:1038D000120000C0E5FF01C0E5FF02C0E5FF006E79
:1038E000390E04012125016E026A040E022201C074
:1038F000E9FF02C0EAFF00C0EFFF220E215D01E2F6
:10390000212B00500A0A0FE104012151E56E800EBF
:10391000E56E040EE56E390EE56EA5EC14F0040EAE
:10392000E1260401216BE4CF02F0E4CF01F0E4CF03
:1039300000F0120004011C6B04011D6B04011E69E0
:10394000898C929C766A3F0E756E7086728A72843C
:10395000728C7290718C718E0301706B03016A6BB3
:1039600003016D6B03016E6B03016F6B000EE56A63
:10397000EDEC1FF00401206FE652A598A59A010E08
:1039800004011F6F0301586B596B2F0E5A6FFBEC2C
:103990001FF0120004011A510401836F04011B512E
:1039A0000401846FD650816FD750826F8351040118
:1039B0001A1905E10401845104011B190CE00401EA
:1039C0001A510401836F04011B510401846FD65006
:1039D000816FD750826F84C4E9FF83C4F4FF82C42F
:1039E000F3FF04018151120000C0E5FF01C0E5FFB3
:1039F00003016E510301771905E003016E510301C4
:103A00006D1902E1E86A15D06EC300F003016E2B58
:103A1000016A600E0026000E012200C0E9FF01C00D
:103A2000EAFFEFCF00F06E51800A02E103016E6BF6
:103A30000050E4CF01F0E4CF00F0120000C0E5FF39
:103A40008DEC20F00401896B806B8983006A89B357
:103A5000002A0050010BE844F46E8051FD0BF41075
:103A6000806FD58ED59CD59AD588D596D594D5829C
:103A7000D580F28AF184D08EF28EF28CBA80FF0E5D
:103A8000BB68BA84E4CF00F01200D9CFE5FFE1CFE4
:103A9000D9FF00C0E5FF01C0E5FF020EDBCF00F05B
:103AA0000050020DF450016EF3CF00F0000E00261E
:103AB000030E012200C0E9FF01C0EAFFEECF00F0D3
:103AC000EFCF01F001C0F3FF0050E4CF01F0E4CFED
:103AD00000F0E4CFD9FF1200D9CFE5FFE1CFD9FF45
:103AE00000C0E5FF01C0E5FF020EDBCF00F0005093
:103AF000020DF450016EF3CF00F0E00E0026000E30
:103B0000012200C0E9FF01C0EAFFEECF00F0EFCFD5
:103B100001F001C0F3FF0050E4CF01F0E4CF00F06A
:103B2000E4CFD9FF1200D9CFE5FFE1CFD9FF00C024
:103B3000E5FF01C0E5FF02C0E5FF020EDBCF00F0AC
:103B400065C301F066C302F00301653F01D0662B37
:103B50000050E56E0150E56EDEEC1DF0E652E652D7
:103B6000E4CF02F0E4CF01F0E4CF00F0E4CFD9FFDE
:103B70001200D8CFE5FFE0CFE5FFE56EF3CFE5FF1C
:103B8000F4CFE5FFE9CFE5FFEACFE5FFFACFE5FFA8
:103B9000FBCFE5FF44EC0BF0E4CFFBFFE4CFFAFFF3
:103BA000E4CFEAFFE4CFE9FFE4CFF4FFE4CFF3FF93
:103BB000E450E4CFE0FFE4CFD8FF1000D9CFE5FF19
:103BC000E1CFD9FF00C0E5FF020EDBCF00F0030E0E
:103BD000DBCFA8FF00C0A9FFA69EA69CA684F29EEC
:103BE000F29C550EA76EAA0EA76EA682A6A202D0C0
:103BF0000000FCD7A694F28EF28CE4CF00F0E4CF64
:103C0000D9FF1200E8AE0AD0F3CFEAFFEE50EECFB4
:103C1000F3FFEECFF4FFEECFE9FF1200E8BCA3EF15
:103C200020F0E9CFF6FFF3CFF7FFF86E0900F5506B
:103C30000900F5CFF3FF0900F5CFF4FF0900F5CF38
:103C4000E9FF120000C0E5FF01C0E5FF04011C51BF
:103C500004011D1902E1E86A0FD0000E04011D25C0
:103C6000006E016A010E012200C0E9FF01C0EAFFF7
:103C7000EFCF00F01D2B0050E4CF01F0E4CF00F0B7
:103C80001200F2CFEAFFF29EA69EA69CA684E9CF80
:103C9000A9FFF3CFAAFFE4CFA8FF6DEC20F0F4CF8B
:103CA000A8FF6DEC20F0F6CFA8FF6DEC20F0F7CF69
:103CB000A8FF6DEC20F0A694EABEF28E1200F2CFBF
:103CC000F6FFF29EA69EA69CE9CFA9FFF3CFAAFF1E
:103CD000A680A850A94AAA2AA680A8CFF3FFA94A7D
:103CE000AA2AA680A8CFF4FFA94AAA2AA680A8CF0C
:103CF000EAFFF6BEF28E1200000000000000000095
:103D0000000000000000000000000A00002800027F
:103D1000190000000000FF00000000070002000082
:103D20000042000000000000000000000000000051
:103D3000E8AE08D0F3CFEAFFEE50EECFF3FFEECFC0
:103D4000F4FF1200E8BCABEF20F0E9CFF6FFF3CFB1
:103D5000F7FFF86E0900F5500900F5CFF3FF0900F1
:103D6000F5CFF4FF1200F2CFEAFFF29EA69EA69CCA
:103D7000A684E9CFA9FFF3CFAAFFE4CFA8FF6DEC9B
:103D800020F0F4CFA8FF6DEC20F0F6CFA8FF6DEC8B
:103D900020F0A694EABEF28E1200D9CFE5FFE1CF63
:103DA000D9FF00C0E5FF020EDBCF00F000C020F419
:103DB0000050E56E000EE56ADEEC1DF0E652E652BC
:103DC000E4CF00F0E4CFD9FF1200F2CFF6FFF29E6D
:103DD000A69EA69CE9CFA9FFF3CFAAFFA680A85074
:103DE000A94AAA2AA680A8CFF3FFA94AAA2AA68090
:103DF000A8CFF4FFF6BEF28E120000C0E5FF01C0AE
:103E0000E5FF600E03016E25006E016A000E0122BF
:103E100000C0E9FF01C0EAFFEFCF00F00050E4CF9F
:103E200001F0E4CF00F01200D9CFE5FFE1CFD9FFD8
:103E300000C0E5FF020EDBCF00F0610E005C05E381
:103E40007B0E005C02E2010E01D0E86AE4CF00F0D4
:103E5000E4CFD9FF120000C0E5FF01C0E5FF65C354
:103E600000F066C301F00301653F01D0662B0050EE
:103E7000E56EEDEC1FF0E652E4CF01F0E4CF00F088
:103E80001200D9CFE5FFE1CFD9FF00C0E5FF020E58
:103E9000DBCF00F000C01FF4005004E1FBEC1FF08A
:103EA000A39AA398E4CF00F0E4CFD9FF1200E8AEC4
:103EB00006D0F3CFEAFFEE50EECFF3FF1200E8BCDE
:103EC000A1EF20F0E9CFF6FFF3CFF7FFF86E09007E
:103ED000F5500900F5CFF3FF1200F2CFEAFFF29E92
:103EE000A69EA69CA684E9CFA9FFF3CFAAFFE4CFA4
:103EF000A8FF6DEC20F0F4CFA8FF6DEC20F0A694A5
:103F0000EABEF28E120012EEFFF022EEFFF0F86A27
:103F1000A68EA69CE9680E0EEA6E0068000EED6A99
:103F20000050FDE12EEC19F006EC00F0FFD7F2CFC7
:103F3000F6FFF29EA69EA69CE9CFA9FFF3CFAAFFAB
:103F4000A680A850A94AAA2AA680A8CFF3FFF6BE49
:103F5000F28E1200F2CFEAFFF29EA69EA69CA684E5
:103F6000E9CFA9FFF3CFAAFFE4CFA8FF6DEC20F0C3
:103F7000A694EABEF28E1200E8AE0BD0F3CFEAFFB1
:103F8000E4CFEEFFF4CFEEFFF6CFEEFFF7CFEEFF7C
:103F90001200E8BCA5EF20F01200E8AE04D0F3CF89
:103FA000EAFFEE501200E8BC9FEF20F0E9CFF6FFE9
:103FB000F3CFF7FFF86E0900F5501200E8AE09D014
:103FC000F3CFEAFFE4CFEEFFF4CFEEFFF6CFEEFF44
:103FD0001200E8BCADEF20F01200D9CFE5FFE1CF31
:103FE000D9FF020EDBCFA9FFA69CA69EA680A850F3
:103FF000E4CFD9FF120072A2FED7898C7450000062
:104000007450719871887186A38AA39812002564F0
:104010002000F2CFF6FFF29EA69EA69CE9CFA9FF54
:10402000F3CFAAFFA680A850F6BEF28E1200E8AE2B
:1040300007D0F3CFEAFFE4CFEEFFF4CFEEFF12009C
:10404000E8BCA9EF20F01200700ED36E9B8CFF0E1F
:104050009268936894689668626AF19E120000C044
:10406000E5FFFBEC1BF0006E005001E1FF00E4CF28
:1040700000F012000F01456B900E0F01446F030E0C
:104080000F01436F0F01458F1200E8AE05D0F3CF4B
:10409000EAFFE4CFEEFF1200E8BCA7EF20F0120029
:1040A000010E0401376F1C0E0301656F666BAFECE8
:1040B00020F01200D9CFE5FFE1CFD9FF020EDBCF10
:1040C00025F4E4CFD9FF12000401376B1C0E030165
:1040D000656F666BAFEC20F01200550EA76EAA0E4E
:1040E000A76EA682A6B2FED7A94AAA2A010504068F
:1040F000020A08094300256300000100F83C0000A3
:1041000000040000370000001EEC1DF09AEC1CF0CB
:104110001200ACA2FED7AD6E120024EC20F012000B
:10412000A9EC08F0120003016E511200030178514E
:10413000120004011F511200E8CF7FFF120009EFA7
:1041400020F097EF1FF05FEF1EF041EF1EF0AAEF97
:104150001FF06DEF1FF0E5EF1EF0B3EF1EF0120041
:020000040030CA
:010006008574
:00000001FF
