:020000040000FA
:1000000051EF1FF0C96E12008BEF1BF0EAEC0FF0FE
:1000100022EC0FF0FDD7120083EF1DF0D9CFE5FFE2
:10002000E1CFD9FF00C0E5FF01C0E5FF02C0E5FF59
:1000300003C0E5FF04C0E5FF05C0E5FF06C0E5FF1E
:1000400007C0E5FF08C0E5FF09C0E5FF0AC0E5FFFE
:100050000BC0E5FF0CC0E5FF0DC0E5FF0EC0E5FFDE
:100060000FC0E5FF10C0E5FF11C0E5FF12C0E5FFBE
:1000700013C0E5FF14C0E5FF15C0E5FF16C0E5FF9E
:1000800017C0E5FF18C0E5FF19C0E5FF1AC0E5FF7E
:100090001BC0E5FF1CC0E5FF1DC0E5FF1EC0E5FF5E
:1000A000020EDBCF00F0030EDBCF01F0040EDBCF3E
:1000B00002F0050EDBCF03F0060EDBCF04F0070ED7
:1000C000DBCF05F0080EDBCF06F0090EDBCF07F023
:1000D0000A0EDBCF08F0096A0A6A02C00DF00D5063
:1000E000800A0DE102500301686F0150676F0050F4
:1000F000666F030E016E660E006E800E026E03C008
:10010000E9FF04C0F3FF05509BEC1FF00B6E0B5092
:10011000D8B4C4EF03F00B50250A02E0ABEF03F0B4
:100120000C6A0D6A0E6A0F6A106A0A0E116E126A64
:10013000136A146A200E156E1668176A2B0E186E55
:10014000032A02E3044A052A03C0E9FF04C0F3FFBF
:1001500005509BEC1FF0196E250A13E11950E56E4E
:100160000250E56E0150E56E0050E56EEAEC12F0CB
:10017000040EE126094A0A2A032A02E3044A052A50
:10018000BED71950300A06E1300E156E032A02E37D
:10019000044A052A03C0E9FF04C0F3FF05509BECA5
:1001A0001FF02D0A06E1010E146E032A02E3044A31
:1001B000052A03C0E9FF04C0F3FF05509BEC1FF0C4
:1001C000200A08E1010E176E200E186E032A02E3C2
:1001D000044A052A03C0E9FF04C0F3FF05509BEC65
:1001E0001FF02B0A06E1010E176E032A02E3044AF0
:1001F000052A03C0E9FF04C0F3FF05509BEC1FF084
:10020000196E310E195C2BE33A0E195C28E203C01B
:1002100019F004C01AF005C01BF019C0E9FF1AC09C
:10022000F3FF1B509BEC1FF01C6E300E1C5C11E3A7
:100230003A0E1C5C0EE213500A0DF3CF1DF01C5059
:100240001D26D00E1D24136E192A02E31A4A1B2AFA
:10025000E4D719C003F01AC004F01BC005F003C0B6
:10026000E9FF04C0F3FF05509BEC1FF02E0A2DE1BF
:10027000032A02E3044A052A166A03C019F004C0DF
:100280001AF005C01BF019C0E9FF1AC0F3FF1B509C
:100290009BEC1FF01C6E300E1C5C11E33A0E1C5CD4
:1002A0000EE216500A0DF3CF1DF01C501D26D00E85
:1002B0001D24166E192A02E31A4A1B2AE4D719C014
:1002C00003F01AC004F01BC005F003C0E9FF04C02E
:1002D000F3FF05509BEC1FF0196E6C0A07E1010E4D
:1002E0000C6E032A02E3044A052A09D01950680A51
:1002F00006E1010E0E6E032A02E3044A052A03C03A
:10030000E9FF04C0F3FF05509BEC1FF0750A06E1FE
:10031000010E106E032A02E3044A052A03C0E9FF16
:1003200004C0F3FF05509BEC1FF0196E730A05E142
:10033000010E0D6E200E156E3FD01950780A03E1A4
:10034000100E116E39D01950580A05E1100E116EB9
:10035000010E126E31D01950630A02E1116A2CD0DD
:1003600019506F0A03E1080E116E26D01950660A63
:1003700003E1010E0F6E20D01950640A1DE01950E0
:10038000690A1AE0105005E0FF0E03260422052238
:1003900013D01950E56E0250E56E0150E56E005025
:1003A000E56EEAEC12F0040EE126094A0A2A032A55
:1003B00002E3044A052AA3D60D5021E00650030F9C
:1003C0000D6E000E0720196E000E08201A6E0DC06B
:1003D00006F019C007F01AC008F0FD0E0D26FF0E3A
:1003E00019221A220DC0E9FF19C0F3FF1A5066EC5A
:1003F0001EF00D6EF3CF19F0F4CF1AF0FDD00F50B0
:100400000DE0000E1A6E080E196E100E0D6E040E21
:100410000626000E072208221668EED016680C5039
:1004200023E00650040F0C6E000E07200F6E000E26
:1004300008201B6E0CC006F00FC007F01BC008F0B0
:10044000FC0E0C26FF0E0F221B220CC0E9FF0FC072
:10045000F3FF1B50ECEC1DF00C6EF3CF0FF0F4CF5C
:100460001BF0E9CF1CF067D00E502FE00650020FB2
:100470000E6E000E07201D6E000E08201E6E0EC0B0
:1004800006F01DC007F01EC008F0FE0E0E26FF0E7F
:100490001D221E220EC0E9FF1DC0F3FF1E5025ECD9
:1004A0001FF00E6E0EC00CF00F6A1B6A1C6A115012
:1004B0000A0A03E11050D8B43ED00C500E6E0EC0A4
:1004C0000CF00F6A1B6A1C6A36D00650020F0E6EC3
:1004D000000E07201D6E000E08201E6E0EC006F0D6
:1004E0001DC007F01EC008F0FE0E0E26FF0E1D22D6
:1004F0001E220EC0E9FF1DC0F3FF1E5025EC1FF0A9
:100500000E6EF3CF1DF00EC00CF01DC00FF0E86AA8
:100510001DBEFF0E1B6E1C6E11500A0A02E1105028
:100520000AE00C500E6E0F501D6E0EC00CF01DC078
:100530000FF01B6A1C6A040E196EF40E0D6E800E0D
:100540001A6E1150D8B440D0105013E01150E56E1F
:10055000040EE56EF40EE56E1C50E56E1B50E56E64
:100560000F50E56E0C50E56E46EC0EF0070EE126DE
:1005700012D01150E56E040EE56EF40EE56E1C50BF
:10058000E56E1B50E56E0F50E56E0C50E56EA2EC6B
:1005900017F0070EE12617502FE00DC0E9FF19C034
:1005A000F3FF1A509BEC1FF02D0A26E0FF0E0D26DC
:1005B00019221A2218C0E5FF0DC0E9FF19C0F3FF88
:1005C0001A5013EC20F018D00CC0E5FF0DC0E9FF65
:1005D00019C0F3FF1A5013EC20F00D50010F0C6EF0
:1005E000000E19200E6E000E1A20E56A0CC0E9FFFD
:1005F0000EC0F3FF13EC20F00DC00CF019C00EF08C
:100600001AC00FF013C010F0105010E00CC0E9FF3A
:100610000EC0F3FF0F509BEC1FF0176E175006E053
:100620000C2A02E30E4A0F2A1006EED710C013F070
:1006300014501EE109C00CF00AC00EF010C00FF0FB
:100640000F5010E01550E56E0250E56E0150E56E5A
:100650000050E56EEAEC12F0040EE1260C4A0E2A78
:100660000F06EED70CC009F00EC00AF00FC013F051
:1006700016C00CF00DC00DF019C00EF01AC00FF02E
:1006800009C010F00AC015F00DC0E9FF0EC0F3FF5D
:100690000F509BEC1FF0166E1650D8B43ED00CC015
:1006A00016F0176A161E171E1650171005E00CC01C
:1006B00016F00C06165031E00DC0E9FF0EC0F3FF36
:1006C0000F509BEC1FF0116E125010E01150E56EB0
:1006D000E2EC1EF0166EE652165004E0DF0E111426
:1006E000166E02D011C016F016C011F01150E56E52
:1006F0000250E56E0150E56E0050E56EEAEC12F036
:10070000040EE1260D2A02E30E4A0F2A104A152A8A
:100710001350D8B4B9D71306B7D710C009F015C015
:100720000AF014502BE010C00CF015C00DF013C0EF
:100730000EF00E501FE0200EE56E0250E56E0150E7
:10074000E56E0050E56EEAEC12F0040EE1260C4A6C
:100750000D2A0E06EED70B50E56E0250E56E0150E5
:10076000E56E0050E56EEAEC12F0040EE126094A4F
:100770000A2A04D00CC009F00DC00AF0032A02E3D3
:10078000044A052A7FEF00F00AC0F3FF0950E4CFC6
:100790001EF0E4CF1DF0E4CF1CF0E4CF1BF0E4CF5B
:1007A0001AF0E4CF19F0E4CF18F0E4CF17F0E4CF5B
:1007B00016F0E4CF15F0E4CF14F0E4CF13F0E4CF5B
:1007C00012F0E4CF11F0E4CF10F0E4CF0FF0E4CF5B
:1007D0000EF0E4CF0DF0E4CF0CF0E4CF0BF0E4CF5B
:1007E0000AF0E4CF09F0E4CF08F0E4CF07F0E4CF5B
:1007F00006F0E4CF05F0E4CF04F0E4CF03F0E4CF5B
:1008000002F0E4CF01F0E4CF00F0E4CFD9FF120012
:100810003C4E4F20464C4F41543E000000C0E5FF87
:1008200001C0E5FF02C0E5FF03C0E5FF04C0E5FF2E
:1008300005C0E5FF06C0E5FF07C0E5FF08C0E5FF0E
:1008400009C0E5FF0AC0E5FF0BC0E5FF0CC0E5FFEE
:10085000006A016A026A040E025CD8B0E8D101C0E5
:1008600003F0012A100E035CD8B0E1D10401692B1A
:10087000100E695D01E3696B04016939E8441F0BDF
:10088000036E046A6F0E0326030E042203C0E9FF01
:1008900004C0EAFFEFCF03F0070E6915046E010EE6
:1008A000056E000E066E045006E0E86CD890053622
:1008B0000636010FFCE3076A0350051607500616BB
:1008C00005500610D880E866D890056A05360550B0
:1008D000D8A4C1D704016951020DF450046EF3CFBE
:1008E00003F0E00E0324056E000E0420066E05C022
:1008F000E9FF06C0EAFFEECF05F0EFCF06F00401F6
:1009000066A19DD0D30E0324076E040E0420086E4A
:1009100007C0E9FF08C0EAFFEECF07F0EFCF08F00D
:100920000650800FF36E0850800FF35C02E1075011
:10093000055C03E2056A066A60D0000E0326030E1A
:10094000042203C0E9FF04C0EAFFEECF03F0EFCFBB
:1009500004F00450800FF36E0650800FF35C02E148
:100960000550035C04E205683F0E066E46D0075052
:10097000055C096E085006580A6EE86A0ABEFF0E4A
:100980000B6EE56E0B50E56E0A50E56E0950E56E94
:10099000E56AE56A400EE56E000EE56A3BEC0BF099
:1009A000096EF3CF0AF0F4CF0BF0E9CF0CF0080E8C
:1009B000E1260750035C076E08500458086EE86A89
:1009C00008BEFF0E036EE56E0350E56E0850E56E3F
:1009D0000750E56E0C50E56E0B50E56E0A50E56E63
:1009E0000950E56E40EC11F0036EF3CF04F0080EF1
:1009F000E1260350056E0450066E04016551800F18
:100A0000F36E0650800FF35C02E10550645D03E372
:100A1000056A066A14D004016451FF08036E3F0E94
:100A20006555046E0650800FF36E0450800FF35C22
:100A300002E10350055C03E305683F0E066E040106
:100A40006951020DF450046EF3CF03F0B30E032688
:100A5000040E042203C0E9FF04C0EAFFEECF03F056
:100A6000EFCF04F00350055C036E04500658046E8B
:100A7000D88004AED89004E3041E036CD8B4042AD2
:100A8000022A04016551800FF36E0450800FF35C5D
:100A900002E10350645DD8B0DED604016951020D55
:100AA000F450086EF3CF07F0B30E0726040E0822A9
:100AB00007C0E9FF08C0EAFF05C0EEFF06C0EFFF70
:100AC000040166A55AD004016951020DF450086E64
:100AD000F3CF07F0200E0724096E030E08200A6EDC
:100AE00009C0E9FF0AC0EAFFEECF0BF0EFCF0CF030
:100AF0000B500C10D8B441D0930E0726040E0822D8
:100B000007C0E9FF08C0EAFFEECF07F0EFCF08F01B
:100B10000750055C036E08500658046E03101CE075
:100B20000450800F800F02E1010E035C076A073654
:100B30000C50800F800F02E1010E0B5C0B6A0B362C
:100B400007500B1809E109C0E9FF0AC0EAFF03C01A
:100B5000EEFF04C0EFFF7FD604016951020DF4508F
:100B6000046EF3CF03F0200E0326030E042203C00D
:100B7000E9FF04C0EAFFEE6AEF6A040166A343D00E
:100B800000500EE100C003F0002A046A6A0E03263A
:100B9000040E042203C0E9FF04C0EAFF420EEF6E18
:100BA00000C003F0002A046A6A0E0326040E042221
:100BB000640E04016925076E03C0E9FF04C0EAFF63
:100BC00007C0EFFF00C003F0002A046A6A0E032684
:100BD000040E04220650076E03C0E9FF04C0EAFFBA
:100BE00007C0EFFF00C003F0002A046A6A0E032664
:100BF000040E04220550076E03C0E9FF04C0EAFF9B
:100C000007C0EFFF28D669C403F00650E56E055013
:100C1000E56EE56A0350E56E000EE56E2A0EE56EA0
:100C20000C0EE56E1BEC1AF0070EE12614D602C07E
:100C300001F000501DE0040166A31AD000C002F0CC
:100C4000002A036A6A0E0226040E032202C0E9FF8C
:100C500003C0EAFF0A0EEF6E0050E56E800EE56EEF
:100C6000040EE56E6A0EE56E0CEC15F0040EE1263E
:100C70000150E4CF0CF0E4CF0BF0E4CF0AF0E4CF66
:100C800009F0E4CF08F0E4CF07F0E4CF06F0E4CFBA
:100C900005F0E4CF04F0E4CF03F0E4CF02F0E4CFBA
:100CA00001F0E4CF00F0120000C0E5FF01C0E5FF55
:100CB00002C0E5FF03C0E5FF04C0E5FF05C0E5FF96
:100CC00006C0E5FF07C0E5FF08C0E5FF09C0E5FF76
:100CD0000AC0E5FFC2A204D00401675167EF08F023
:100CE00004016851D8B41BD104016751020DF450BE
:100CF000016EF3CF00F0E00E0026000E012200C0CE
:100D0000E9FF01C0EAFFEECF00F0EFCF01F0230EC4
:100D10006725026E036A040E032202C0E9FF03C0C6
:100D2000EAFFEFCF02F00250FF0A01E152D0023891
:100D30000F0B036E920E0324046E056A0F0E05223C
:100D4000066A920E03260F0E062203C0E9FF06C0B4
:100D5000EAFFEFCF03F0070E0214066E010E076ED6
:100D6000065005E0E86CD8900736010FFDE3071C3C
:100D7000066E031604C0E9FF05C0EAFF03C0EFFFDB
:100D800002380F0B036E890E0324046E056A0F0EE2
:100D90000522066A890E03260F0E062203C0E9FF0C
:100DA00006C0EAFFEFCF03F0070E0214066E010E35
:100DB000076E065005E0E86CD8900736010FFDE39A
:100DC000071C066E031604C0E9FF05C0EAFF03C056
:100DD000EFFF04016751020DF450046EF3CF03F0EE
:100DE000E00E0326000E042201340130066E0030AE
:100DF000056E0634063205320634063205320550D9
:100E0000005C056E06500158066EC3CF07F0086AF5
:100E10000750052608500622C4CF07F0086A07507D
:100E20000A6E096A095005260A50062203C0E9FF26
:100E300004C0EAFF05C0EEFF06C0EFFF04016351E6
:100E4000010A01E06AD004016751020DF450046EFA
:100E5000F3CF03F0E00E0324056E000E0420066EAF
:100E600005C0E9FF06C0EAFFEECF00F0EFCF01F0CA
:100E7000D30E0326040E042203C0E9FF04C0EAFFD8
:100E8000EECF05F0EFCF06F09C0E0526D8A00606A3
:100E90000150800FF36E0650800FF35C02E10550A5
:100EA000005C0EE20050640F056E000E0120066E1D
:100EB00003C0E9FF04C0EAFF05C0EEFF06C0EFFF74
:100EC00004016751020DF450046EF3CF03F0000EDD
:100ED0000326030E042203C0E9FF04C0EAFFEECF9D
:100EE00005F0EFCF06F0640E0526D8B0062A0650AE
:100EF000800FF36E0150800FF35C02E10050055C3F
:100F00000CE29C0E0026D8A0010603C0E9FF04C035
:100F1000EAFF00C0EEFF01C0EFFF0401686B0401AF
:100F2000672B100E675D01E3676B04016739E844C6
:100F30001F0B006E016A6F0E0026030E012200C017
:100F4000E9FF01C0EAFFEFCF00F0070E6715016E61
:100F5000010E036E000E046E015006E0E86CD8909E
:100F600003360436010FFCE3056A005003160550F2
:100F7000041603500410D880E866D890036A03363C
:100F80000350D8A4A2D0230E04016725006E016A85
:100F90000F0E012200C0E9FF01C0EAFFEFCF00F011
:100FA0000044E844FC0B016E0128C26E230E672545
:100FB000006E016A040E012200C0E9FF01C0EAFFD1
:100FC000EFCF02F00250FF0A01E17BD002380F0B95
:100FD000006E920E0024016E036A0F0E0322046A53
:100FE000920E00260F0E042200C0E9FF04C0EAFFA3
:100FF000EFCF00F0070E0214046E010E056E0450D0
:1010000005E0E86CD8900536010FFDE305500012AD
:1010100001C0E9FF03C0EAFF00C0EFFF380E006E19
:101020000F0E016E02380F0B036E046A0350002688
:1010300004500122380E056E0F0E066E0550032671
:101040000650042203C0E9FF04C0EAFFEFCF03F01B
:10105000070E0216010E046E025005E0E86CD890EF
:101060000436010FFDE30450031200C0E9FF01C084
:10107000EAFF03C0EFFF0F01458300000000459326
:101080000F0144930BC0E5FFF2CF0BF0F29E4481B9
:101090000000000000000000000000000000000050
:1010A0000000000000000000000000000000000040
:1010B000000000000000000044910BBEF28EE4CF5F
:1010C0000BF0C282010E0401686F04016751E4CF86
:1010D0000AF0E4CF09F0E4CF08F0E4CF07F0E4CF62
:1010E00006F0E4CF05F0E4CF04F0E4CF03F0E4CF62
:1010F00002F0E4CF01F0E4CF00F0120000C0E5FF01
:1011000001C0E5FF02C0E5FF9EA200D19E9204014E
:10111000475104013B190FE10401485104013C19F6
:101120000AE10401495104013D1905E104014A5154
:1011300004013E1901E042D004015751D8A4E6D081
:10114000050E03016A5D02E1DD0E695D32E3040113
:101150005851020BE840010BE838E844F46E665041
:10116000DF0BF410666E5851010B010BE838F46E7A
:101170006650EF0BF410666E5841E8403F0B676E07
:101180005851020BE840010BE838E844F46EBD50BA
:10119000DF0BF410BD6E5851010B010BE838F46EF3
:1011A000BD50EF0BF410BD6E5841E8403F0BBE6ED2
:1011B000ADD00301693F01D06A2BA8D0040156517C
:1011C000020BE840010BE838E844F46E6650DF0B90
:1011D000F410666E5651010B010BE838F46E665040
:1011E000EF0BF410666E5641E8403F0B676E5651A8
:1011F000020BE840010BE838E844F46EBD50DF0B09
:10120000F410BD6E5651010B010BE838F46EBD5061
:10121000EF0BF410BD6E5641E8403F0BBE6E03016C
:10122000696B6A6B04014A51800FF36E04013E51F1
:10123000800FF35C0DE13D510401495D09E10401BA
:101240003C510401485D04E104013B510401475D48
:101250002EE253C400F0016A005003016B5F01509D
:101260006C5B6C51800F810F02E1000E6B5DD8B09A
:101270004DD003016C2BFF0E04013B273C233D2383
:101280003E233B51006E070E0016016A026A880E6B
:101290000026400E0122000E022200C0F6FF01C00F
:1012A000F7FF02C0F8FF0900F5CF3AF42FD053C47E
:1012B00000F0016A005003016B2701506C236C5150
:1012C000800F7F0F02E1010E6B5D20E303016C07CD
:1012D00004013B2B05E33C2B03E33D3F01D03E2BB8
:1012E00004013B51006E070E0016016A026A880E67
:1012F0000026400E0122000E022200C0F6FF01C0AF
:10130000F7FF02C0F8FF0900F5CF3AF4A1AC06D010
:10131000A19C79AC03D089988A9AA09CA1AA06D0F6
:10132000A19A78AC03D08A908A92A09A9EA02AD0E3
:101330009E90A19CA19A04013AA102D0898801D073
:10134000899804013AA302D08A8A01D08A9A0401BA
:101350003AA502D08A8001D08A9004013AA702D02F
:101360008A8201D08A9279AC03D089988A9A01D076
:10137000A08C78AC03D08A908A9201D0A08AFF0E0C
:10138000CF68CE6AF0A22FD0F0923BC43FF43CC4A9
:1013900040F43DC441F43EC442F404014A51800F7C
:1013A000F36E04013E51800FF35C0DE13D510401E9
:1013B000495D09E104013C510401485D04E1040177
:1013C0003B510401475D07E2FF0E04014B274C230C
:1013D0004D234E2308D004014B2B05E34C2B03E394
:1013E0004D3F01D04E2BE4CF02F0E4CF01F0E4CF2B
:1013F00000F01200800EE56E030EE56E000EE56E45
:10140000B4EC18F0030EE126800EE56E040EE56ED6
:10141000D30EE56EB4EC18F0030EE126800EE56EF7
:10142000030EE56E020EE56EB4EC18F0030EE12635
:10143000800EE56E040EE56ED50EE56EB4EC18F088
:10144000030EE126800EE56E030EE56E040EE56EDA
:10145000B4EC18F0030EE126800EE56E040EE56E86
:10146000D70EE56EB4EC18F0030EE126800EE56EA3
:10147000030EE56E060EE56EB4EC18F0030EE126E1
:10148000800EE56E040EE56ED90EE56EB4EC18F034
:10149000030EE126800EE56E030EE56E080EE56E86
:1014A000B4EC18F0030EE126800EE56E040EE56E36
:1014B000DB0EE56EB4EC18F0030EE126800EE56E4F
:1014C000030EE56E0A0EE56EB4EC18F0030EE1268D
:1014D000800EE56E040EE56EDD0EE56EB4EC18F0E0
:1014E000030EE126800EE56E030EE56E0C0EE56E32
:1014F000B4EC18F0030EE126800EE56E040EE56EE6
:10150000DF0EE56EB4EC18F0030EE126800EE56EFA
:10151000030EE56E0E0EE56EB4EC18F0030EE12638
:10152000800EE56E040EE56EE10EE56EB4EC18F08B
:10153000030EE126800EE56E030EE56E100EE56EDD
:10154000B4EC18F0030EE126800EE56E040EE56E95
:10155000E30EE56EB4EC18F0030EE126800EE56EA6
:10156000030EE56E120EE56EB4EC18F0030EE126E4
:10157000800EE56E040EE56EE50EE56EB4EC18F037
:10158000030EE126800EE56E030EE56E140EE56E89
:10159000B4EC18F0030EE126800EE56E040EE56E45
:1015A000E70EE56EB4EC18F0030EE126800EE56E52
:1015B000030EE56E160EE56EB4EC18F0030EE12690
:1015C000800EE56E040EE56EE90EE56EB4EC18F0E3
:1015D000030EE126800EE56E030EE56E180EE56E35
:1015E000B4EC18F0030EE126800EE56E040EE56EF5
:1015F000EB0EE56EB4EC18F0030EE126800EE56EFE
:10160000030EE56E1A0EE56EB4EC18F0030EE1263B
:10161000800EE56E040EE56EED0EE56EB4EC18F08E
:10162000030EE126800EE56E030EE56E1C0EE56EE0
:10163000B4EC18F0030EE126800EE56E040EE56EA4
:10164000EF0EE56EB4EC18F0030EE126800EE56EA9
:10165000030EE56E1E0EE56EB4EC18F0030EE126E7
:10166000800EE56E040EE56EF10EE56EB4EC18F03A
:10167000030EE1261200D9CFE5FFE1CFD9FF00C06C
:10168000E5FF01C0E5FF02C0E5FF03C0E5FF04C0C0
:10169000E5FF05C0E5FF06C0E5FF07C0E5FF020E58
:1016A000DBCF00F0030EDBCF01F0040EDBCF02F046
:1016B000050EDBCF03F0060EDBCF04F0070EDBCF09
:1016C00005F0080EDBCF06F0090EDBCF07F0005067
:1016D00004017C6F01507D6F02507E6F03507F6F5D
:1016E00004500401816F0550826F0650836F0750CC
:1016F000846F04017C5104018303F4CF01F0F3CF24
:1017000000F000500401876F0150886F04017C5184
:1017100004018103F4CF01F0F3CF00F00050040185
:10172000856F0150866F04017F5104018103F3CF5F
:1017300000F00401885100260050886F04017E519A
:1017400004018203F3CF01F0015000260050040190
:10175000886F04017E5104018103F4CF01F0F3CFBF
:1017600000F0040187510026885101220050876F44
:101770000150886F04017D5104018203F4CF03F00E
:10178000F3CF02F002500026035001220050040162
:10179000876F0150886F04017D5104018303F3CFEB
:1017A00000F0005004018D6F04017D51040181039C
:1017B000F4CF01F0F3CF00F0005004018B6F015023
:1017C0008C6F04017C5104018403F3CF00F00050BE
:1017D0000401916F04017C5104018203F4CF01F0F4
:1017E000F3CF00F0005004018F6F0150906F04019F
:1017F0008A6B04018E6B04018A5104018525006EF9
:1018000004018B5104018621016E04018C510401F5
:101810008721026E04018D5104018821036E00505E
:10182000856F0150866F0250876F0350886F0401E7
:101830008E5104018525006E04018F51040186211B
:10184000016E0401905104018721026E040191513F
:1018500004018821036E03C0E9FF02C0F4FF01C048
:10186000F3FF0050E4CF07F0E4CF06F0E4CF05F03B
:10187000E4CF04F0E4CF03F0E4CF02F0E4CF01F0D2
:10188000E4CF00F0E4CFD9FF120000C0E5FF01C0B3
:10189000E5FF04016051D8B4F5D0A3A81DD0A4A8D9
:1018A0001BD003017A510301771905E1C9EC1FF040
:1018B0000301776BE7D0000E03017A25006E016A01
:1018C000040E012200C0E9FF01C0EAFFEFCF73F36D
:1018D0007A2B73C373FFD6D0A4AAD4D071A205D03B
:1018E00003017881C9EC1FF0CDD071A405D00301AC
:1018F0007883C9EC1FF0C6D071A03ED074CF73F3CB
:10190000800E040161110301731904E10301788958
:101910007196B8D00301735104E073510401611949
:1019200027E10301789971960301735103E00301E4
:10193000789702D00301788773C37CF375C37DF376
:101940000301750503017E6F600E03017D25006EA6
:10195000016A000E012200C0E9FF01C0EAFF73C363
:10196000EFFF7D2B7D51800A02E103017D6B8AD060
:1019700003017899718686D074CF73F3030178A937
:1019800019D0800E040161110301731911E1899CC2
:10199000A39A71980301775104E1736AC9EC1FF0AF
:1019A00007D000C473FF010E03017A6FA3886AD0C9
:1019B000718668D00301735103017C2703017D51B7
:1019C00003017E191BE103017C510CE17DC375F31A
:1019D000030178B712D0899CA39A7198736AC9ECF5
:1019E0001FF00BD00301788578B707D0899CA39AA4
:1019F0007198010E736EC9EC1FF044D003017D5144
:101A00000301761908E1030176510301751903E01A
:101A1000C9EC1FF037D075C300F0016A004A012AF3
:101A2000E56A800EE56E0150E56E0050E56EFEEC55
:101A300015F0006E040EE12600500301746F0301DF
:101A40007D190CE11F0E0301731503017E6F7E2BC0
:101A50007E2B0301755103017E277E9F7DC300F01D
:101A600003017D2B016A600E0026000E012200C0DA
:101A7000E9FF01C0EAFF73C3EFFF7D51800A02E175
:101A800003017D6BE4CF01F0E4CF00F0120000C051
:101A9000E5FF01C0E5FF02C0E5FF03C0E5FF04C0AC
:101AA000E5FF05C0E5FF06C0E5FF07C0E5FFBEECAA
:101AB0001CF0006E020A12E00050030A14E000500D
:101AC000040A23E00050050A25E00050060A01E15F
:101AD00069D000500A0A01E1A0D0C7D0BEEC1CF0CA
:101AE0000401596FC2D0BEEC1CF0006EFF0A04E185
:101AF000010E0401576FB9D00050FE0A03E1040142
:101B0000576BB3D000C056F4B0D0BEEC1CF004014B
:101B1000536FABD0BEEC1CF0036E026ABEEC1CF03F
:101B2000016A0226015003220350076E0250066E1E
:101B3000046A056ABEEC1CF0036E016ABEEC1CF080
:101B4000006A012600500322026A015004100401B9
:101B5000476F03500510486F00500610496F025040
:101B600007104A6F800FF36E04013E51800FF35C43
:101B70000DE13D510401495D09E104013C510401BD
:101B8000485D04E104013B510401475DD870006ADF
:101B900000360050010BE838F46EF150EF0BF410F2
:101BA000F16E63D0BEEC1CF0036E026ABEEC1CF05A
:101BB000016A0226015003220350076E0250066E8E
:101BC000046A056ABEEC1CF0036E016ABEEC1CF0F0
:101BD000006A01260050032201500412035005122E
:101BE00000500612071208C0E5FFF2CF08F0F29E7F
:101BF00004C03BF405C03CF406C03DF407C03EF40D
:101C000004C047F405C048F406C049F407C04AF4CC
:101C100008BEF28EE4CF08F028D0BEEC1CF0036EB4
:101C2000026ABEEC1CF0016A022601500322025037
:101C3000020BE840010BE838E844F46E0F015D51F7
:101C4000DF0BF4105D6F0250010B010BE838F46EEE
:101C50005D51EF0BF4105D6FD89003320232D890D3
:101C60000332023202500F015E6FE4CF07F0E4CF7F
:101C700006F0E4CF05F0E4CF04F0E4CF03F0E4CFC6
:101C800002F0E4CF01F0E4CF00F01200D9CFE5FF7D
:101C9000E1CFD9FF00C0E5FF01C0E5FF02C0E5FFCD
:101CA00003C0E5FF04C0E5FF05C0E5FF06C0E5FF92
:101CB00007C0E5FF08C0E5FF09C0E5FF0AC0E5FF72
:101CC0000BC0E5FF0CC0E5FF0DC0E5FF0EC0E5FF52
:101CD0000FC0E5FF020EDBCF00F0030EDBCF01F0FB
:101CE000040EDBCF02F0050EDBCF03F0060EDBCFD8
:101CF00004F0070EDBCF05F0080EDBCF06F0200E58
:101D0000076E086A06C009F00A6A0B6A0C6AE56A7F
:101D1000E56AE56A0950E56E0350E56E0250E56E2E
:101D20000150E56E0050E56EA3EC10F00D6E080E4C
:101D3000E126300E0D263A0E0D5C05E30D500E6EB9
:101D4000270E0E240D6EFF0E07260822400E0724D4
:101D50000E6E030E08200F6E0EC0E9FF0FC0EAFFE3
:101D60000DC0EFFF0C50E56E0B50E56E0A50E56EAE
:101D70000950E56E0350E56E0250E56E0150E56EC8
:101D80000050E56E40EC11F0006EF3CF01F0F4CF9F
:101D900002F0E9CF03F0080EE12600500110021016
:101DA0000310D8A4AFD707C000F008C001F004C0EA
:101DB00002F005C003F000C004F001C005F0004AC5
:101DC000012A400E0426030E052204C0E9FF05C0C7
:101DD000EAFFEFCF04F002C0E9FF03C0EAFF04C04E
:101DE000EFFF024A032A000E015C02E1200E005CB4
:101DF000E2E302C0E9FF03C0EAFF000EEF6AE4CFAE
:101E00000FF0E4CF0EF0E4CF0DF0E4CF0CF0E4CF10
:101E10000BF0E4CF0AF0E4CF09F0E4CF08F0E4CF10
:101E200007F0E4CF06F0E4CF05F0E4CF04F0E4CF10
:101E300003F0E4CF02F0E4CF01F0E4CF00F0E4CF10
:101E4000D9FF120000C0E5FF01C0E5FF02C0E5FFB9
:101E500003C0E5FF54EC06F05DEC12F094EC1CF0CE
:101E6000006EF3CF01F0F4CF02F0E9CF03F00401EC
:101E70003351005E3451015A3551025A3651035ADA
:101E8000039E3F0E035C08E1FF0E025C05E1FF0EBE
:101E9000015C02E1FF0E005CD8B093D094EC1CF022
:101EA000F3CF01F0F4CF02F0E9CF03F0880F040183
:101EB000336F130E0120346F000E0220356F000EB9
:101EC0000320366F04014F5104014B1910E1040146
:101ED000505104014C190BE10401515104014D19F9
:101EE00006E10401525104014E1901E135D04BC401
:101EF0004FF44CC450F44DC451F44EC452F4420E4D
:101F000033EC1CF0020E33EC1CF00401425133ECB4
:101F10001CF004014151006E33EC1CF004014051EF
:101F2000006E33EC1CF004013F5133EC1CF0040153
:101F3000525133EC1CF004015151006E33EC1CF093
:101F400004015051006E33EC1CF004014F5133EC8E
:101F50001CF00A0E33EC1CF05AC400F004015A07BE
:101F600000502FE159C45AF4420E33EC1CF0010E1C
:101F700033EC1CF004013E5133EC1CF004013D51E4
:101F8000006E33EC1CF004013C51006E33EC1CF08D
:101F900004013B5133EC1CF004014A5133EC1CF0BA
:101FA00004014951006E33EC1CF004014851006EED
:101FB00033EC1CF00401475133EC1CF00A0E33ECF7
:101FC0001CF0E4CF03F0E4CF02F0E4CF01F0E4CF63
:101FD00000F0120000C0E5FF01C0E5FF02C0E5FF10
:101FE00003C0E5FF05C0E5FF52EC20F0949E0F0111
:101FF0005A6B0F015A830C0E0F015D6F89988A9AF4
:102000008A908A928A868A889298939A93969390D5
:10201000939293989492636A6380666E9494B96A7B
:10202000B980BD6EBA84BA8CBA86006ABAB6002A84
:102030000050010BE838F46EBA50EF0BF410BA6E92
:10204000006ABAB8002A0050010BE838E844F46E80
:10205000BA50DF0BF410BA6E9F829E929D82CD80A3
:10206000CD503F0BCD6ECD88CD9ACF68CE6A9F8084
:102070009E909D807988798E7950FC0B796E779649
:102080007888788E7850FC0B0109786E7794A19C43
:10209000A09CA28CA19AA09AA28A89EC14F0F19E2D
:1020A0009384810E006E0F0E016E0F0E036E380EBC
:1020B0000026035001220F0E036E800E005E0350B7
:1020C000015A810E026E0F0E036E0F0E056E380E52
:1020D0000226055003220F0E056E800E025E05508B
:1020E000035A02C0E9FF03C0EAFFEFCF02F00294F7
:1020F00000C0E9FF01C0EAFF02C0EFFFF198F08ED7
:10210000F092F08832EC20F094EC1CF0F3CF01F068
:10211000F4CF02F0E9CF03F0880F0401336F130E00
:102120000120346F000E0220356F000E0320366F41
:10213000E4CF05F0E4CF03F0E4CF02F0E4CF01F008
:10214000E4CF00F01200D9CFE5FFE1CFD9FF00C006
:10215000E5FF01C0E5FF02C0E5FF03C0E5FF04C0E5
:10216000E5FF05C0E5FF06C0E5FF07C0E5FF08C0C5
:10217000E5FF09C0E5FF0AC0E5FF020EDBCF00F076
:10218000030EDBCF01F0040EDBCF02F0050EDBCF38
:1021900003F0060EDBCF04F0070EDBCF05F0080ED0
:1021A000DBCF06F0090EDBCF07F0086A04500510FC
:1021B0000610071005E1E968F468F368E86847D09D
:1021C000096A0750800BE8440A6E0A501BE104506C
:1021D00004260536063607360750035C08E106502C
:1021E000025C05E10550015C02E10450005C06E27E
:1021F000D890073206320532043204D0092A09C0C9
:1022000008F0DFD70750035C08E10650025C05E1E7
:102210000550015C02E10450005C08E30450005EDC
:102220000550015A0650025A0750035AD8900732F7
:1022300006320532043208C009F008060950E2E10E
:1022400003C0E9FF02C0F4FF01C0F3FF0050E4CF78
:102250000AF0E4CF09F0E4CF08F0E4CF07F0E4CFD0
:1022600006F0E4CF05F0E4CF04F0E4CF03F0E4CFD0
:1022700002F0E4CF01F0E4CF00F0E4CFD9FF120088
:10228000D9CFE5FFE1CFD9FF00C0E5FF01C0E5FFF1
:1022900002C0E5FF03C0E5FF04C0E5FF05C0E5FFA0
:1022A00006C0E5FF07C0E5FF08C0E5FF09C0E5FF80
:1022B0000AC0E5FF0BC0E5FF0CC0E5FF0DC0E5FF60
:1022C000020EDBCF00F0030EDBCF01F0040EDBCFFC
:1022D00002F0050EDBCF03F0060EDBCF04F0070E95
:1022E000DBCF05F0080EDBCF06F0090EDBCF07F0E1
:1022F000086A096A0A6A0B6A200E0C6E0350800B8A
:10230000E8440D6E005000260136023603360850B0
:10231000082609360A360B360D50D8A40880075017
:102320000B5C08E106500A5C05E10550095C02E11E
:102330000450085C09E30450085E0550095A065031
:102340000A5A07500B5A00800C040D6E0DC00CF099
:102350000D50D4E103C0E9FF02C0F4FF01C0F3FF58
:102360000050E4CF0DF0E4CF0CF0E4CF0BF0E4CF5D
:102370000AF0E4CF09F0E4CF08F0E4CF07F0E4CFAF
:1023800006F0E4CF05F0E4CF04F0E4CF03F0E4CFAF
:1023900002F0E4CF01F0E4CF00F0E4CFD9FF120067
:1023A00000C0E5FF01C0E5FF03C0E5FF04C0E5FF95
:1023B00005C0E5FF06C0E5FF07C0E5FF08C0E5FF73
:1023C00009C0E5FF0AC0E5FF0BC0E5FF6DC300F0E3
:1023D0006EC301F003016D3F01D06E2B0050E56E1E
:1023E000BBEC1FF0E652076E046A056A066A6DC30D
:1023F00000F06EC301F003016D3F01D06E2B005061
:10240000E56EBBEC1FF0E6520B6A0A6E086A0850D4
:10241000041205120A5006120B5007126DC300F089
:102420006EC301F003016D3F01D06E2B0050E56ECD
:10243000BBEC1FF0E652036E006A03C001F0E86ACD
:1024400003BEFF0E086E096E005004120150051203
:1024500008500612095007126DC300F06EC301F058
:1024600003016D3F01D06E2B0050E56EBBEC1FF0F9
:10247000E652016A0412015005120612071207C043
:10248000E9FF06C0F4FF05C0F3FF0450E4CF0BF0F2
:10249000E4CF0AF0E4CF09F0E4CF08F0E4CF07F08E
:1024A000E4CF06F0E4CF05F0E4CF04F0E4CF03F08E
:1024B000E4CF01F0E4CF00F0120000C0E5FF01C05E
:1024C000E5FF02C0E5FF03C0E5FF04C0E5FF03012F
:1024D00076510301751901E15FD076C300F0002A3F
:1024E000009E600E0024016E026A000E022201C0EE
:1024F000E9FF02C0EAFFEFCF80F31F0E0301801750
:1025000076C37FF3805103017F277F2B7F2B7F9F33
:10251000BEEC1CF0016E015003E1016A012A01D0FA
:10252000016ABEEC1CF00301806F800E8015026E04
:102530001F0E8015036E03C004F003C080F3045027
:1025400003E175C376F33BD001501BE0025022E05B
:10255000BEEC1CF0006E030180070050420A1AE036
:1025600000504E0A03E199EC19F014D00050460ACD
:1025700003E1FDEC1FF00ED00050490A0BE1FF0013
:1025800009D076C381F3025003E09AEC1AF002D02E
:1025900047EC0DF07FC376F304015D5104015E1931
:1025A00006E00301775103E100EC14F008D089BC88
:1025B00006D00301775103E172B2C9EC1FF0E4CFFA
:1025C00004F0E4CF03F0E4CF02F0E4CF01F0E4CF75
:1025D00000F01200D9CFE5FFE1CFD9FF00C0E5FF41
:1025E00001C0E5FF02C0E5FF03C0E5FF04C0E5FF51
:1025F00005C0E5FF06C0E5FF07C0E5FF020EDBCF23
:1026000000F0030EDBCF01F0040EDBCF02F0050E6D
:10261000DBCF03F002C006F00650046E800A33E1FF
:1026200000C0E9FF01C0F3FF025066EC1EF0056E2A
:10263000F3CF06F0F4CF07F003C0E5FF05C0E9FFD4
:1026400006C0F3FF075013EC20F000C0E9FF01C003
:10265000F3FF025066EC1EF0056EF3CF06F0F4CFE8
:1026600007F0052A02E3064A072A05C0E5FF06C06F
:10267000F4FF07C0F6FF00C0E9FF01C0F3FF0250FE
:10268000ACEC1FF020D004C000F000AA1CD0007AEF
:102690000050046E04E1035057EC20F014D00450B5
:1026A000010A04E1035002EC00F00DD004500F0ABF
:1026B00004E1035033EC1CF006D004500E0A03E191
:1026C00003506AEC20F0E4CF07F0E4CF06F0E4CF4B
:1026D00005F0E4CF04F0E4CF03F0E4CF02F0E4CF60
:1026E00001F0E4CF00F0E4CFD9FF1200D9CFE5FF2D
:1026F000E1CFD9FF00C0E5FF01C0E5FF02C0E5FF63
:1027000003C0E5FF04C0E5FF05C0E5FF06C0E5FF27
:1027100007C0E5FF08C0E5FF09C0E5FF0AC0E5FF07
:10272000020EDBCF00F0030EDBCF01F0040EDBCF97
:1027300002F0050EDBCF03F0060EDBCF04F0070E30
:10274000DBCF05F00038E8441F0B066E076A6F0EFA
:102750000626030E072206C0E9FF07C0EAFFEFCFF7
:1027600008F0070E0014096E010E0A6E095005E00C
:10277000E86CD8900A36010FFDE30A50081206C033
:10278000E9FF07C0EAFF08C0EFFF230E0024066E32
:10279000076A0F0E072206C0E9FF07C0EAFF01C063
:1027A000EFFF016A230E0026040E0122800E025E56
:1027B000070E02160238F00B036E070E05160550C1
:1027C000032600C0E9FF01C0EAFF03C0EFFFE4CF2A
:1027D0000AF0E4CF09F0E4CF08F0E4CF07F0E4CF4B
:1027E00006F0E4CF05F0E4CF04F0E4CF03F0E4CF4B
:1027F00002F0E4CF01F0E4CF00F0E4CFD9FF120003
:1028000000C0E5FF01C0E5FF02C0E5FF03C0E5FF32
:1028100072A276D00CEC1EF0006E005005E10401AF
:102820005E6B04015D6B6CD05EC401F0005001264C
:102830000CEC1EF0026E00060250230A1FE1010E8E
:10284000005CD8A05BD00CEC1EF0026E690A03E1BC
:1028500064EC1CF053D00250720A03E1C9EC1FF083
:102860004DD00250730A01E049D0898C7186A38A49
:10287000A398745074507198718840D00250430AE4
:1028800005E00250420A01E039D001D0008E00C0BC
:1028900079F300500401006F010E03017A6F040107
:1028A0005E51011814E00CEC1EF0026E0301792752
:1028B000000E03017A25006E036A040E032200C095
:1028C000E9FF03C0EAFF02C0EFFF7A2BE8D7000E52
:1028D00003017A25006E026A040E02220301791DAB
:1028E000036E032A00C0E9FF02C0EAFF03C0EFFF46
:1028F00003017A2B7AC377F30301716B01C05EF495
:10290000E4CF03F0E4CF02F0E4CF01F0E4CF00F035
:10291000120000C0E5FF01C0E5FF02C0E5FF03C0F3
:10292000E5FF04C0E5FF006A6F0E0024016E026A35
:10293000030E022201C0E9FF02C0EAFFEF6A002A8B
:10294000020E005CF1E3006A0050020DF450026ECA
:10295000F3CF01F0E00E0124036E000E0220046E9E
:1029600003C0E9FF04C0EAFFEE6AEF6A930E012498
:10297000036E040E0220046E03C0E9FF04C0EAFFE8
:10298000EE6AEF6AB30E0124036E040E0220046E99
:1029900003C0E9FF04C0EAFFEE6AEF6AD30E012428
:1029A000036E040E0220046E03C0E9FF04C0EAFFB8
:1029B000EE6AEF6A000E0126030E022201C0E9FF53
:1029C00002C0EAFFEE687F0EEF6E230E0024016E58
:1029D000026A040E022201C0E9FF02C0EAFFEF68AA
:1029E000002A100E005CD8A0AFD7AF0EC06EC16A2F
:1029F000010EC26EC282E4CF04F0E4CF03F0E4CF54
:102A000002F0E4CF01F0E4CF00F0120043204120B7
:102A100025642025640A0000D9CFE5FFE1CFD9FF66
:102A200000C0E5FF01C0E5FF02C0E5FF03C0E5FF10
:102A300004C0E5FF05C0E5FF06C0E5FF07C0E5FFF0
:102A4000020EDBCF00F0030EDBCF01F0040EDBCF74
:102A500002F0050EDBCF03F05EC45FF404015D51AC
:102A600004015F5F5F0703C004F0056A030E0426DC
:102A7000D8B0052A5FC406F0076A0750800FF36ECE
:102A80000550800FF35C02E10450065C02E2E86846
:102A90002BD0020E035C02E2E86A26D00306035044
:102AA000E56E14EC1BF0E652046A0350045C14E279
:102AB00004500024056EE86A0120066EE86A0220D0
:102AC00005C0E9FF06C0F3FF9BEC1FF0042AE56E8A
:102AD00014EC1BF0E652E9D75EC45FF404015D51CB
:102AE00004015F5F5F07E86AE4CF07F0E4CF06F018
:102AF000E4CF05F0E4CF04F0E4CF03F0E4CF02F03C
:102B0000E4CF01F0E4CF00F0E4CFD9FF1200D9CF39
:102B1000E5FFE1CFD9FF00C0E5FF01C0E5FF02C03E
:102B2000E5FF03C0E5FF04C0E5FF05C0E5FF020EB9
:102B3000DBCF00F0030EDBCF01F0040EDBCF02F0A1
:102B40000050020DF450036EF3CF00F0930E0024FA
:102B5000046E040E0320056E04C0E9FF05C0EAFF01
:102B600001C0EEFF02C0EFFFB30E0024046E040E9E
:102B70000320056E04C0E9FF05C0EAFFEECF04F0B4
:102B8000EFCF05F00150045C016E02500558026E53
:102B9000200E0026030E032200C0E9FF03C0EAFF57
:102BA00001C0EEFF02C0EFFFD88002AED89004E370
:102BB000021E016CD8B4022A0250800F800F02E17D
:102BC000030E015C02E2016A026A0150021007E191
:102BD00000C0E9FF03C0EAFF000EEE6AEF6AE4CF2F
:102BE00005F0E4CF04F0E4CF03F0E4CF02F0E4CF4B
:102BF00001F0E4CF00F0E4CFD9FF1200D9CFE5FF18
:102C0000E1CFD9FF00C0E5FF01C0E5FF02C0E5FF4D
:102C100003C0E5FF04C0E5FF05C0E5FF06C0E5FF12
:102C2000020EDBCF00F0030EDBCF01F0040EDBCF92
:102C300002F0050EDBCF03F0D88001AED890046A15
:102C40000436045007E0011C066E001C056E054AA0
:102C5000062A04D000C005F001C006F0D88003AEFB
:102C6000D89007E3031C016E021C006E004A012A83
:102C700004D002C000F003C001F00150E56E005026
:102C8000E56E0650E56E0550E56E05EC18F0006E39
:102C9000F3CF01F0040EE12604500AE0011C036E9C
:102CA000001C026E024A032A03C0F3FF025003D045
:102CB00001C0F3FF0050E4CF06F0E4CF05F0E4CF0D
:102CC00004F0E4CF03F0E4CF02F0E4CF01F0E4CF6E
:102CD00000F0E4CFD9FF1200D9CFE5FFE1CFD9FF53
:102CE00000C0E5FF01C0E5FF02C0E5FF03C0E5FF4E
:102CF00004C0E5FF05C0E5FF020EDBCF00F0030EC8
:102D0000DBCF01F0040EDBCF02F0050EDBCF03F0CA
:102D10006DC304F06EC305F003016D3F01D06E2B4F
:102D20000350E56E0450E56EA8EC1DF0E652E65245
:102D30006DC304F06EC305F003016D3F01D06E2B2F
:102D40000250056EE56E0450E56EA8EC1DF0E652EB
:102D5000E6526DC304F06EC305F003016D3F01D070
:102D60006E2B0150056EE56E0450E56EA8EC1DF06B
:102D7000E652E6526DC304F06EC305F003016D3FE9
:102D800001D06E2B0050E56E0450E56EA8EC1DF0EE
:102D9000E652E652E4CF05F0E4CF04F0E4CF03F0CE
:102DA000E4CF02F0E4CF01F0E4CF00F0E4CFD9FFAC
:102DB0001200D9CFE5FFE1CFD9FF00C0E5FF01C088
:102DC000E5FF02C0E5FF03C0E5FF04C0E5FF05C065
:102DD000E5FF06C0E5FF020EDBCF00F0030EDBCF00
:102DE00001F0040EDBCF02F00401375119E1D0EC01
:102DF00011F0036EF3CF04F0F4CF05F0E9CF06F045
:102E000003C0E5FF04C0F4FF05C0F6FF06C0F7FFEE
:102E100000C0E9FF01C0F3FF02508AEC1FF01ED092
:102E200004013751010A1AE100C0E9FF01C0F3FFB4
:102E30000250ECEC1DF0006EF3CF01F0F4CF02F085
:102E4000E9CF03F00350E56E0250E56E0150E56EE8
:102E50000050E56E6CEC16F0040EE126E4CF06F0AF
:102E6000E4CF05F0E4CF04F0E4CF03F0E4CF02F0C8
:102E7000E4CF01F0E4CF00F0E4CFD9FF1200D9CFC6
:102E8000E5FFE1CFD9FF00C0E5FF01C0E5FF02C0CB
:102E9000E5FF03C0E5FF04C0E5FF05C0E5FF06C090
:102EA000E5FF020EDBCF00F0030EDBCF01F00038B0
:102EB000E8441F0B026E036A6F0E0226030E032204
:102EC00002C0E9FF03C0EAFFEFCF04F0070E0014D1
:102ED000056E010E066E055005E0E86CD8900636CA
:102EE000010FFDE30650041202C0E9FF03C0EAFF30
:102EF00004C0EFFF230E0024026E036A0F0E0322AC
:102F000002C0E9FF03C0EAFF01C0EFFF016A230E20
:102F10000026040E012200C0E9FF01C0EAFFFF0EF7
:102F2000EF68E4CF06F0E4CF05F0E4CF04F0E4CF9F
:102F300003F0E4CF02F0E4CF01F0E4CF00F0E4CFFF
:102F4000D9FF1200D9CFE5FFE1CFD9FF00C0E5FFDF
:102F500001C0E5FF02C0E5FF03C0E5FF04C0E5FFD7
:102F600005C0E5FF06C0E5FF020EDBCF00F0030E53
:102F7000DBCF01F0040EDBCF02F0050EDBCF03F058
:102F8000060EDBCF04F0070EDBCF05F0080EDBCF1B
:102F900006F0D88003AED89015E306500A0A12E175
:102FA00004C0E9FF05C0EAFF2D0EEF6E044A052AB2
:102FB000031E021E011E006C05E1012A03E1022A24
:102FC000D8B4032A0650E56E0550E56E0450E56E50
:102FD0000350E56E0250E56E0150E56E0050E56E5F
:102FE00046EC0EF0070EE126E4CF06F0E4CF05F044
:102FF000E4CF04F0E4CF03F0E4CF02F0E4CF01F03B
:10300000E4CF00F0E4CFD9FF1200D9CFE5FFE1CF44
:10301000D9FF00C0E5FF01C0E5FF02C0E5FF03C026
:10302000E5FF04C0E5FF05C0E5FF06C0E5FF020EB1
:10303000DBCF00F0030EDBCF01F0040EDBCF02F09C
:10304000050EDBCF03F0046A056A0350800BE844E9
:10305000066E065011E10250022603360350015C51
:1030600002E10250005C04E2D8900332023204D044
:10307000052A05C004F0E9D70350015C02E10250C3
:10308000005C04E30250005E0350015AD890033202
:10309000023204C005F004060550EEE101C0F3FF62
:1030A0000050E4CF06F0E4CF05F0E4CF04F0E4CF25
:1030B00003F0E4CF02F0E4CF01F0E4CF00F0E4CF7E
:1030C000D9FF120000C0E5FF01C0E5FF02C0E5FF27
:1030D00003C0E5FF76C300F0016A81C302F0036A12
:1030E0000250005E0350015AE56A800EE56E015001
:1030F000E56E0050E56EFEEC15F0006E040EE12664
:10310000000681C301F0430E33EC1CF0200E33ECBB
:103110001CF0005020E0600E0124026E036A000ED5
:10312000032202C0E9FF03C0EAFFEFCF02F0E56A25
:103130000250E56E000EE56E3F0EE56EAA0EE56EDE
:103140001BEC1AF0050EE126012A0150800A01E16C
:10315000016A0006DED7E4CF03F0E4CF02F0E4CF4B
:1031600001F0E4CF00F01200D9CFE5FFE1CFD9FFA5
:1031700000C0E5FF01C0E5FF02C0E5FF03C0E5FFB9
:1031800004C0E5FF020EDBCF00F0030EDBCF01F041
:10319000040EDBCF02F00401375111E1FFEC1BF00C
:1031A000036EF3CF04F003C0E5FF04C0F4FF00C0DA
:1031B000E9FF01C0F3FF0250E5EC1FF016D0040157
:1031C0003751010A12E100C0E9FF01C0F3FF0250CC
:1031D00025EC1FF0006EF3CF01F00150E56E0050BA
:1031E000E56ED7EC1AF0E652E652E4CF04F0E4CFF5
:1031F00003F0E4CF02F0E4CF01F0E4CF00F0E4CF3D
:10320000D9FF1200960EF66E400EF76E000EF86EA5
:103210000900F550056E0900F550066E04E10567DA
:1032200002D04FEF19F00900F550006E0900F5507B
:10323000016E0900F550026E09000900F550E96EB3
:103240000900F550EA6E090009000900F550036E07
:103250000900F550046E09000900F6CF07F0F7CF1A
:1032600008F0F8CF09F000C0F6FF01C0F7FF02C078
:10327000F8FF035002E1045007E00900F550EE6E3C
:103280000306F8E20406F9D707C0F6FF08C0F7FF07
:1032900009C0F8FF050601E206060EEF19F012005C
:1032A000D9CFE5FFE1CFD9FF00C0E5FF01C0E5FFC1
:1032B00002C0E5FF03C0E5FF04C0E5FF05C0E5FF70
:1032C000020EDBCF00F00050010A22E1016A01503A
:1032D000020DF450036EF3CF02F0D30E0224046EFD
:1032E000040E0320056E04C0E9FF05C0EAFFEE6886
:1032F0007F0EEF6E000E0226030E032202C0E9FFCE
:1033000003C0EAFFEE6AEF6A012A100E015CDFE3F8
:1033100000C063F4E4CF05F0E4CF04F0E4CF03F0A1
:10332000E4CF02F0E4CF01F0E4CF00F0E4CFD9FF26
:10333000120000C0E5FF01C0E5FF02C0E5FFBEECE2
:103340001CF0006EBEEC1CF0016E0050026ED00E40
:103350000224006E0A0E005C05E30050026EF90EB6
:103360000224006E0150026ED00E0224016E0A0E7D
:10337000015C05E30150026EF90E0224016E080E95
:10338000005C12E2100E015CD8B00ED00038F00BD9
:103390000124006EC5EC1BF0016E015005E10050E8
:1033A000E56E9BEC1EF0E652E4CF02F0E4CF01F0B4
:1033B000E4CF00F01200D9CFE5FFE1CFD9FF00C084
:1033C000E5FF01C0E5FF02C0E5FF03C0E5FF04C063
:1033D000E5FF020EDBCF00F00038E8441F0B016E62
:1033E000026A6F0E0126030E022201C0E9FF02C02D
:1033F000EAFFEFCF03F0070E0016010E046E005037
:1034000005E0E86CD8900436010FFDE3041C0316B8
:1034100001C0E9FF02C0EAFF03C0EFFFE4CF04F000
:10342000E4CF03F0E4CF02F0E4CF01F0E4CF00F00A
:10343000E4CFD9FF1200D9CFE5FFE1CFD9FF00C01B
:10344000E5FF01C0E5FF02C0E5FF020ED924006ED2
:10345000000EDA20016E800E026E030E0026000EB2
:10346000012202220250E56E0150E56E0050E56E29
:10347000040EDBCFE5FF030EDBCFE5FF020EDBCF53
:10348000E5FF03016251E56E6151E56E6051E56E45
:103490000EEC00F0006EF3CF01F0090EE12601C042
:1034A000F3FF0050E4CF02F0E4CF01F0E4CF00F0EE
:1034B000E4CFD9FF1200D9CFE5FFE1CFD9FF00C09B
:1034C000E5FF01C0E5FF02C0E5FF03C0E5FF020E16
:1034D000DBCF00F0030EDBCF01F0040EDBCF02F0F8
:1034E000040137510DE1F9EC1EF0036E03C0E5FF56
:1034F00000C0E9FF01C0F3FF025013EC20F00FD031
:1035000004013751010A0BE100C0E9FF01C0F3FFDC
:1035100002509BEC1FF0E56E5DEC1DF0E652E4CF2F
:1035200003F0E4CF02F0E4CF01F0E4CF00F0E4CF09
:10353000D9FF120000C0E5FF01C0E5FFBEEC1CF0A2
:10354000006E4C0A08E1BEEC1CF0300A02E0898EE5
:1035500029D0899E27D00050450A24E1000EE56E4F
:10356000400EE56E900EE56E1BEC1AF0030EE126A0
:1035700064EC20F0006E00C001F0000601500FE086
:10358000BEEC1CF0E56AE56E000EE56E400EE56EE1
:10359000920EE56E1BEC1AF0050EE126ECD70A0E32
:1035A00033EC1CF0E4CF01F0E4CF00F01200D9CFEF
:1035B000E5FFE1CFD9FF00C0E5FF01C0E5FF02C094
:1035C000E5FF03C0E5FF020EDBCF00F0030EDBCF0B
:1035D00001F06DC302F06EC303F003016D3F01D033
:1035E0006E2B0150E56E0250E56EA8EC1DF0E65220
:1035F000E6526DC302F06EC303F003016D3F01D0CC
:103600006E2B0050E56E0250E56EA8EC1DF0E65200
:10361000E652E4CF03F0E4CF02F0E4CF01F0E4CFD0
:1036200000F0E4CFD9FF1200D9CFE5FFE1CFD9FFF9
:1036300000C0E5FF01C0E5FF02C0E5FF03C0E5FFF4
:1036400004C0E5FF020EDBCF00F05DC401F0026AAA
:10365000014A022A5EC403F0046A0150031803E120
:103660000250041801E001D00ED0000E04015D25C7
:10367000016E026A010E022201C0E9FF02C0EAFFE8
:1036800000C0EFFF5D2BE4CF04F0E4CF03F0E4CF04
:1036900002F0E4CF01F0E4CF00F0E4CFD9FF120054
:1036A000D9CFE5FFE1CFD9FF00C0E5FF01C0E5FFBD
:1036B00002C0E5FF03C0E5FF020EDBCF00F0016AA8
:1036C00081C302F0036A0250002603500122E56A1A
:1036D000800EE56E0150E56E0050E56EFEEC15F0D3
:1036E000006EF3CF01F0040EE126600E0026000EFE
:1036F000012200C0E9FF01C0EAFFEFCF00F0005057
:10370000E4CF03F0E4CF02F0E4CF01F0E4CF00F027
:10371000E4CFD9FF1200F3CFE5FFF4CFE5FFE9CF07
:10372000E5FFEACFE5FFFACFE5FFFBCFE5FF0401B8
:103730005B510F01356F04015C510F01366FD6509C
:10374000336FD750346FF2A411D004015B3F01D026
:103750005C2BF29404015B510F01356F04015C5145
:103760000F01366FD650336FD750346F5EEC20F0B8
:10377000E4CFFBFFE4CFFAFFE4CFEAFFE4CFE9FFB9
:10378000E4CFF4FFE4CFF3FF110000C0E5FF01C078
:10379000E5FF02C0E5FF010E006EBEEC1CF0016EFD
:1037A00001C002F0015023E00050E56EBBEC1FF0B9
:1037B000016EE652015010E10A0E005C0BE20A0EA7
:1037C000006EE56EBBEC1FF0016EE652015004E1A5
:1037D000E8680ED0E8680CD00150021802E0E868F2
:1037E00007D0002A1B0E005CD8E3E86801D0E86A25
:1037F000E4CF02F0E4CF01F0E4CF00F0120000C00B
:10380000E5FF01C0E5FF02C0E5FF03C0E5FF6DC3B2
:1038100000F06EC301F003016D3F01D06E2B00502C
:10382000E56EBBEC1FF0E652036E026A6DC300F05A
:103830006EC301F003016D3F01D06E2B0050E56EA9
:10384000BBEC1FF0E652016A02120150031203C0E2
:10385000F3FF0250E4CF03F0E4CF02F0E4CF01F035
:10386000E4CF00F0120000C0E5FF01C0E5FF02C098
:10387000E5FF006E000E04016225016E026A0F0E64
:10388000022201C0E9FF02C0EAFF00C0EFFF220EE2
:10389000625D01E2622B00500A0A0FE104016251ED
:1038A000E56E800EE56E0F0EE56E000EE56E0CEC1B
:1038B00015F0040EE1260401626BE4CF02F0E4CFC0
:1038C00001F0E4CF00F0120004015D6B04015E6BB7
:1038D00004015F69898C929C766A3F0E756E7086D2
:1038E000728A7284728C7290718C718E0301786B03
:1038F0000301726B0301756B0301766B0301776B38
:10390000000EE56ABBEC1FF00401616FE652A5985A
:10391000A59A010E0401606F0301606B616B2F0EAD
:10392000626FC9EC1FF0120004015B5104017A6F51
:1039300004015C5104017B6FD650786FD750796FCA
:103940007A5104015B1905E104017B5104015C1902
:103950000CE004015B5104017A6F04015C51040125
:103960007B6FD650786FD750796F7BC4E9FF7AC4EC
:10397000F4FF79C4F3FF04017851120000C0E5FFA1
:1039800001C0E5FF0301765103017F1905E0030142
:1039900076510301751902E1E86A15D076C300F08B
:1039A0000301762B016A600E0026000E012200C082
:1039B000E9FF01C0EAFFEFCF00F07651800A02E193
:1039C0000301766B0050E4CF01F0E4CF00F0120069
:1039D00000C0E5FF5BEC20F00401896B806B8983FC
:1039E000006A89B3002A0050010BE844F46E80514C
:1039F000FD0BF410806FD58ED59CD59AD588D596C1
:103A0000D594D582D580F28AF184D08EF28EF28C54
:103A1000BA80FF0EBB68BA84E4CF00F01200D9CFA1
:103A2000E5FFE1CFD9FF00C0E5FF01C0E5FF020ED1
:103A3000DBCF00F00050020DF450016EF3CF00F028
:103A4000200E0026030E012200C0E9FF01C0EAFF9C
:103A5000EECF00F0EFCF01F001C0F3FF0050E4CF54
:103A600001F0E4CF00F0E4CFD9FF1200D9CFE5FF99
:103A7000E1CFD9FF00C0E5FF01C0E5FF020EDBCFBB
:103A800000F00050020DF450016EF3CF00F0E00E94
:103A90000026000E012200C0E9FF01C0EAFFEECFC0
:103AA00000F0EFCF01F001C0F3FF0050E4CF01F0D0
:103AB000E4CF00F0E4CFD9FF1200D9CFE5FFE1CF8A
:103AC000D9FF00C0E5FF01C0E5FF02C0E5FF020E1F
:103AD000DBCF00F06DC301F06EC302F003016D3F58
:103AE00001D06E2B0050E56E0150E56EA8EC1DF084
:103AF000E652E652E4CF02F0E4CF01F0E4CF00F06A
:103B0000E4CFD9FF1200D8CFE5FFE0CFE5FFE56EA7
:103B1000F3CFE5FFF4CFE5FFE9CFE5FFEACFE5FF1F
:103B2000FACFE5FFFBCFE5FF45EC0CF0E4CFFBFF60
:103B3000E4CFFAFFE4CFEAFFE4CFE9FFE4CFF4FFFC
:103B4000E4CFF3FFE450E4CFE0FFE4CFD8FF100070
:103B5000D9CFE5FFE1CFD9FF00C0E5FF020EDBCFF3
:103B600000F0030EDBCFA8FF00C0A9FFA69EA69C15
:103B7000A684F29EF29C550EA76EAA0EA76EA68290
:103B8000A6A202D00000FCD7A694F28EF28CE4CF5D
:103B900000F0E4CFD9FF1200000000000000000098
:103BA0000000000000000000000000000000000015
:103BB00000000A0000280002190000000000FF00B9
:103BC00000000007000200000042000000000000AA
:103BD0000000000000000000E8AE0AD0F3CFEAFFCA
:103BE000EE50EECFF3FFEECFF4FFEECFE9FF120081
:103BF000E8BC71EF20F0E9CFF6FFF3CFF7FFF86EE6
:103C00000900F5500900F5CFF3FF0900F5CFF4FFE7
:103C10000900F5CFE9FF120000C0E5FF01C0E5FF94
:103C200004015D5104015E1902E1E86A0FD0000E43
:103C300004015E25006E016A010E012200C0E9FF49
:103C400001C0EAFFEFCF00F05E2B0050E4CF01F09F
:103C5000E4CF00F01200F2CFEAFFF29EA69EA69CEF
:103C6000A684E9CFA9FFF3CFAAFFE4CFA8FF3BECDE
:103C700020F0F4CFA8FF3BEC20F0F6CFA8FF3BEC00
:103C800020F0F7CFA8FF3BEC20F0A694EABEF28E1E
:103C90001200F2CFF6FFF29EA69EA69CE9CFA9FFE6
:103CA000F3CFAAFFA680A850A94AAA2AA680A8CF27
:103CB000F3FFA94AAA2AA680A8CFF4FFA94AAA2AF4
:103CC000A680A8CFEAFFF6BEF28E1200E8AE08D0BA
:103CD000F3CFEAFFEE50EECFF3FFEECFF4FF12008A
:103CE000E8BC79EF20F0E9CFF6FFF3CFF7FFF86EED
:103CF0000900F5500900F5CFF3FF0900F5CFF4FFF7
:103D00001200F2CFEAFFF29EA69EA69CA684E9CFFF
:103D1000A9FFF3CFAAFFE4CFA8FF3BEC20F0F4CF3C
:103D2000A8FF3BEC20F0F6CFA8FF3BEC20F0A694D8
:103D3000EABEF28E1200D9CFE5FFE1CFD9FF00C075
:103D4000E5FF020EDBCF00F000C061F40050E56E2D
:103D5000000EE56AA8EC1DF0E652E652E4CF00F052
:103D6000E4CFD9FF1200F2CFF6FFF29EA69EA69CEA
:103D7000E9CFA9FFF3CFAAFFA680A850A94AAA2A93
:103D8000A680A8CFF3FFA94AAA2AA680A8CFF4FF4D
:103D9000F6BEF28E120000C0E5FF01C0E5FF600E26
:103DA00003017625006E016A000E012200C0E9FFC2
:103DB00001C0EAFFEFCF00F00050E4CF01F0E4CF04
:103DC00000F01200D9CFE5FFE1CFD9FF00C0E5FF39
:103DD000020EDBCF00F0610E005C05E37B0E005CA1
:103DE00002E2010E01D0E86AE4CF00F0E4CFD9FF8F
:103DF000120000C0E5FF01C0E5FF6DC300F06EC317
:103E000001F003016D3F01D06E2B0050E56EBBEC5D
:103E10001FF0E652E4CF01F0E4CF00F01200D9CF5A
:103E2000E5FFE1CFD9FF00C0E5FF020EDBCF00F0D8
:103E300000C060F4005004E1C9EC1FF0A39AA398FD
:103E4000E4CF00F0E4CFD9FF1200E8AE06D0F3CF04
:103E5000EAFFEE50EECFF3FF1200E8BC6FEF20F068
:103E6000E9CFF6FFF3CFF7FFF86E0900F550090030
:103E7000F5CFF3FF1200F2CFEAFFF29EA69EA69CBA
:103E8000A684E9CFA9FFF3CFAAFFE4CFA8FF3BECBC
:103E900020F0F4CFA8FF3BEC20F0A694EABEF28E0F
:103EA000120012EEFFF022EEFFF0F86AA68EA69C3A
:103EB000E9680E0EEA6E0068000EED6A0050FDE142
:103EC00002EC19F006EC00F0FFD7F2CFF6FFF29EFD
:103ED000A69EA69CE9CFA9FFF3CFAAFFA680A85073
:103EE000A94AAA2AA680A8CFF3FFF6BEF28E120036
:103EF000F2CFEAFFF29EA69EA69CA684E9CFA9FF78
:103F0000F3CFAAFFE4CFA8FF3BEC20F0A694EABED3
:103F1000F28E1200E8AE0BD0F3CFEAFFE4CFEEFF53
:103F2000F4CFEEFFF6CFEEFFF7CFEEFF1200E8BCC6
:103F300073EF20F01200E8AE04D0F3CFEAFFEE50AA
:103F40001200E8BC6DEF20F0E9CFF6FFF3CFF7FFEA
:103F5000F86E0900F5501200E8AE09D0F3CFEAFF81
:103F6000E4CFEEFFF4CFEEFFF6CFEEFF1200E8BC99
:103F70007BEF20F01200D9CFE5FFE1CFD9FF020E91
:103F8000DBCFA9FFA69CA69EA680A850E4CFD9FFB0
:103F9000120072A2FED7898C745000007450719880
:103FA00071887186A38AA398120025642000F2CF3D
:103FB000F6FFF29EA69EA69CE9CFA9FFF3CFAAFF2B
:103FC000A680A850F6BEF28E1200E8AE07D0F3CF5E
:103FD000EAFFE4CFEEFFF4CFEEFF1200E8BC77EF8C
:103FE00020F01200700ED36E9B8CFF0E92689368C7
:103FF00094689668626AF19E120000C0E5FFC5EC05
:104000001BF0006E005001E1FF00E4CF00F0120051
:104010000F01456B900E0F01446F030E0F01436FAC
:104020000F01458F1200E8AE05D0F3CFEAFFE4CFD1
:10403000EEFF1200E8BC75EF20F01200010E040143
:10404000376F1C0E03016D6F6E6B7DEC20F012005C
:10405000D9CFE5FFE1CFD9FF020EDBCF66F4E4CF85
:10406000D9FF12000401376B1C0E03016D6F6E6BDC
:104070007DEC20F01200550EA76EAA0EA76EA68248
:10408000A6B2FED7A94AAA2A01050406020A08090F
:104090004300256300000100983B00003904000044
:1040A0003F000000E8EC1CF064EC1CF01200ACA235
:1040B000FED7AD6E1200F2EC1FF012007EEC08F09D
:1040C0001200030176511200030180511200040115
:1040D00060511200E8CF7FFF1200D7EF1FF065EFAD
:1040E0001FF049EF1EF02BEF1EF078EF1FF03BEFB3
:0C40F0001FF0B3EF1EF081EF1EF0120075
:020000040030CA
:010006008574
:00000001FF
